:020000000C945E
:1000020041000C9400000C9400000C9400000C942D
:1000120000000C9400000C9400000C9400000C945E
:1000220000000C947F000C9400000C9400000C94CF
:1000320000000C9400000C9400000C9400000C943E
:1000420000000C9400000C9400000C9400000C942E
:1000520000001027E80364000A00010000100001FC
:100062001000010080C001002D4E414E00494E4655
:10007200000002006C0166000100700168000000CF
:10008200F894EE27ECBBF1E0FBBFEBBFE5BF8DE0E0
:10009200A2E0BB27ED938A95E9F780E094E0A0E621
:1000A200ED930197E9F7E4E7F0E0859195910097E8
:1000B20061F0A591B59105901590BF01F0010590F1
:1000C2000D920197E1F7FB01F0CFEFE5EDBFE4E020
:1000D200EEBFC0E6D1E00C94E700AA93E881E064A9
:1000E200E7B98BE18A95F1F7369A349BFECF349AC1
:1000F200E4B1F5B10C947601789408950A921A92BB
:10010200FA926A937A938A939A93AA93BA93EA9306
:10011200FA93EFB7EA93A0E0E0DF66277727E09350
:100122006001F09361016093620170936301AAE53B
:10013200B0E080E090E00E943E03DF01CB01E0E00E
:10014200F4E060E070E00E946803EB5FFF4F6F4FE6
:100152007F4FA8E6B1E00E943E020E948003E09138
:100162006801F091690160916A0170916B01A3E3EA
:10017200B3E383E290E40E94C802A0E0B0E080E032
:100182009FE30E947802E0936401F093650160931B
:10019200660170936701A0916401B091650180913D
:1001A2006601909167010E94A9010E940502ECBFBD
:1001B200E991EFBFF991E991B991A9919991899149
:1001C20079916991F990199009901895EFEFEABB2E
:1001D200E0E0EBBBE8E0E7BBE0E0E8BBE4BBE5BBAB
:1001E200E1BBE2BBE5E6E3BFE0E0E2BFE0E8ECBF93
:1001F200E0E0EFBDEEBDEDBDECBDE7BDE6BDEBBDA4
:10020200EABDE9BDE8BDE2BDE5BDE4BDE3BDE1E0B7
:10021200E9BFE0E0E5BFE4BFEAB9E0E8E8B9E0E45D
:10022200E7B9E3EAE6B9E0E0E0BFEDB9E6BFA0E195
:1002320030D0789461DFFECFFFCFAA93E5B3EF70A1
:10024200AE2FE881E07FEA2BE5BB8DE08A95F1F7DE
:10025200AA9A8DE08A95F1F7AA988DE08A95F1F72E
:1002620044C0AA93A881E9DFE881E295E883A881E6
:10027200E4DF85E88A95F1F738C0A2E00E94C00168
:10028200ACE0EFDFA1E00E94C001E0E04E2E5E2E66
:100292000895AA93E4B3E06FE4BBA29AA09AA19A4C
:1002A200AA98A898A9987880E881E058E0936E010E
:1002B200E881E054E0936F01A4E1B0E00E94CE0136
:1002C2000E94C6010E94C6010E94C601A0E2B5DFDB
:1002D20088EC90E00197F1F7A8E2C3DFA4E0C1DF68
:1002E200A5E8BFDFA6E0BDDFC8DF219608950E9422
:1002F20094037B816A81F981E88177FB770F67FD3F
:100302007160972F9E5781F078F0983190F4AA2768
:10031200BB27882708948795B795A7959A95D1F713
:10032200EA23FB23682305C0E8947727EE27FF27FB
:1003320066276F77769508F4606877F9A991B99185
:1003420089919991EA17FB076807790797FB089546
:100352000E9494030E948A030E9478010E948F03E4
:1003620019F40E94850309C0E6F70E948503A0E004
:10037200B0E080E89FE30E947102249608950E94F3
:100382003201A3E0B0E00C94CE01A0E30E941E0172
:1003920088EC90E00197F1F70895109639F080ED1E
:1003A20097E00197F1F7A8951197C9F7089555239A
:1003B20042F4503811F4E0FF04C03196691F791FEE
:1003C2006BF050E8572711F45F93CFC05F3F31F0D5
:1003D200660F000C57956795752F08955F9300205F
:1003E2000AF0CFC0C8C050E8192E1522880F991FF5
:1003F2009527550F879550E8072E0522660F771F20
:100402007527550F67950895689401C0E8945F9326
:10041200F2DF703818F07F3F08F4A7C056E1571B8F
:10042200AAF4519558300EF4593030F0EFEFFFEF47
:100432006FEF7FE777F91AC077275523B9F0EE0FF0
:10044200FF1F661F771F5A95D1F710C077275830C4
:1004520028F0EF2FF62F672F5850F9CF552331F0A0
:1004620076956795F795E7955A95D1F700200AF4A6
:10047200DCD05F910895689401C0E89430976040A1
:100482007040B1F0002426F0772312F40094CDD00E
:10049200172E7EE1112032F07A95EE0FFF1F661FB4
:1004A200111CF9CFEF2FF62F612D5F938ADF5F9139
:1004B20008954F93AF01FD01DA01AB01BC01CA01FE
:1004C200402D012C142E4F910895EA0FFB1F681F37
:1004D2000895E095F0956095EF5FFF4F6F4F089597
:1004E2005F9381DF903871F150E8152604C05F9365
:1004F2007ADF903839F1703821F1572F591B2BF1DF
:1005020012F4D7DFFACF583118F0AA27BB27882771
:10051200583028F0AB2FB82F88275850F9CF5523E1
:1005220029F08695B795A7955A95D9F7502D51255B
:1005320072F0CBDF38F46795F795E795739513F46E
:1005420020C0B7DF3EDF5F910895D8F7FBCFEA1BEB
:10055200FB0B680B51F010F40094BBDF662392F39F
:10056200EE0FFF1F661F7A95CBF7EE27FF27662750
:1005720077275F910895EFEFFFEF6FE77FEF5F91CE
:100582000895EFEFFFEF6FE77FE75F9108955F93C5
:100592002ADF703851F3903841F301240894791F0F
:1005A20023F41CF300203AF3ECCF0F921F932F9306
:1005B2003F934F93112722279927689FA0018F9F6E
:1005C200302D410D591F6B9F300D411D591F8E9FBC
:1005D20027D0BF9F25D06A9F23D0BE9F1DD0AF9F3B
:1005E2001BD0AE9F110D291F391F491F591FE32F21
:1005F200F42F652F522F4F913F912F911F910F9002
:1006020066232AF0550FEE1FFF1F661F02C0739567
:100612004BF2CDDE5F910895100D211D391F02C0EE
:10062200200D311D491F591F0895F0956095709551
:10063200E195FF4F6F4F7F4F08957A9F702D6B9F0B
:10064200700DF89F700DE99F700D6A9F602D710DFE
:10065200FB9F600D711DE89F600D711D8827FA9F39
:10066200F02D610D781FEB9FF00D611D781FEA9F41
:10067200E02DF10D681F781F08952ED0DEDF0EF4F5
:10068200D4DF08953F934F935F93002411244427AE
:10069200552730E2AA0FBB1F881F991F001C111C8F
:1006A200441F551F0E1A1F0A460B570B28F40E0E35
:1006B2001F1E461F571F01C0A1603A9559F7FD0141
:1006C200BC01D001CA015F914F913F91089504D0BE
:1006D200D9DF0EF4AADF0895E89477FF02C0A5DF00
:1006E200689497FF0BC00024A095B09580959095D3
:1006F2001196801D901D00F8039400FA0895ED9361
:10070200FD936D937C930895E881F9816A817B81E1
:100712000895A881B9818A819B810895E883F9832C
:100722006A837B8308959A938A93BA93AA930895CE
:00000001FF
