:080000000C9433000C94000085
:100008000C9400000C9400000C9400000C94000068
:100018000C9400000C9400000C9400000C94000058
:100028000C9400000C9400000C9400000C94000048
:100038000C9400000C9400000C9400000C94000038
:100048000C9400000C9400000C9400003F065B4FD9
:10005800666D7D077F6F0A00600154000000F89408
:10006800EE27ECBBF1E0FBBFEBBFE5BF8DE0A2E004
:10007800BB27ED938A95E9F780E094E0A0E6ED933D
:100088000197E9F7EEE5F0E085919591009761F029
:10009800A591B59105901590BF01F00105900D92BD
:1000A8000197E1F7FB01F0CFEFE5EDBFE4E0EEBF2C
:1000B800C0E6D1E00C94600002D0FFCFFFCF1A93C6
:1000C8000A9309E010E0EFEFE4BBEFE0E1BBE0E00A
:1000D800E2BBEFEFFFEFE017F10769F0A0E6B1E050
:1000E800A00FB11FEC91E5BBA4EFB1E00E94820024
:1000F80001501040EECF099119910895109639F0EA
:1001080080ED97E00197F1F7A8951197C9F7089541
:00000001FF
