:040000000C943F001D
:100004000C9400000C9400000C9400000C9400006C
:100014000C9400000C9400000C9400000C9400005C
:100024000C9400000C9400000C9400000C9400004C
:100034000C9400000C9400000C9400000C9400003C
:100044000C9400000C9400000C9400000C9400002C
:10005400256455532564000080C02D4E414E000098
:1000640001002D4E414E00494E4600000200600141
:100074005C000100640164000000F894EE27ECBB0E
:10008400F1E0FBBFEBBFE5BF8DE0A2E0BB27ED9342
:100094008A95E9F780E094E0A0E6ED930197E9F70B
:1000A400E0E7F0E085919591009761F0A591B59115
:1000B40005901590BF01F00105900D920197E1F7AD
:1000C400FB01F0CFEFE5EDBFE4E0EEBFC0E6D1E029
:1000D4000C946C000E94E90002D0FFCFFFCF689718
:1000E4000E94C409E0E0EABB8C9A8D9AE0E0F0E05B
:1000F400FDBDECBDE0E5EFBDEAE0EEBD09B31127BF
:10010400E0E0F0E46CE172E40E942806D8010E9469
:1001140002090E94B0090E9434080E9428060E9425
:1001240073079F01D901E2E0F0E00E942D099F01CD
:10013400EE0FFF1FAA8DBB8D8C8D9D8D0E942D0609
:100144000E943206DF01CB01EA8DFB8D6C8D7D8D23
:100154000E948208A0E0B0E088EC92E40E94340897
:100164000E947307AF014A30E0E05E0714F049E0F3
:1001740050E0F901AFEFB0E00E946309FBBDEABDB6
:10018400D901E0E0F1E00E942D09F9BDE8BDFE01CE
:100194003696FA93EA93E4E5F0E0FA93EA93F901E8
:1001A400EE0FFF1F0E94FD080E94A409FA010E949D
:1001B400FD080E94A40988E00E94C4042C96DE0174
:1001C40016960E945F010E94CB096E960895E0E0A6
:1001D400EABBEBBBE7BBE8BBE4BBE5BBE1BBE2BB13
:1001E400E3BFE2BFECBFEFBDEEBDEDBDECBDE7BDCF
:1001F400E6BDEBBDEABDE9BDE8BDE2BDE5BDE4BDDC
:10020400E3BDE9BFE5BFE4BFEAB9E0E8E8B9E0E08F
:10021400E0BFE6B9EDB9E6BFA0E160D00895AA93C6
:10022400E5B3EF70AE2FE881E07FEA2BE5BB8DE00C
:100234008A95F1F7AA9A8DE08A95F1F7AA988DE04C
:100244008A95F1F777C0AA93A881E9DFE881E2955E
:10025400E883A881E4DF85E88A95F1F76BC0AA9367
:10026400E881F0E0E05AFE4FE081A981AE0FEBDFB8
:100274005980488022960895A2E00E943706ACE097
:10028400E2DFA1E00E943706E0E04E2E5E2E0895E4
:10029400AA93A881AA3011F0571448F0E0E0EA9339
:1002A4004394A42DDCDFA881AA3009F443C05394FD
:1002B400A89AA881C8DFA8983DC0BA93AA931A93B4
:1002C400A981BA81ED91A983BA831E2FE03019F078
:1002D400A12FDEDFF5CF188123960895AA93E4B306
:1002E400E06FE4BBA29AA09AA19AAA98A898A998A8
:1002F4007880E881E058E0936201E881E054E0937B
:100304006301A4E1B0E00E9434070E943D060E940C
:100314003D060E943D06A0E282DF88EC90E0019752
:10032400F1F7A8E290DFA4E08EDFA5E88CDFA6E079
:100334008ADFA2DF21960895BA93AA931A930A93A7
:10034400AA81BB8112960E948B09309729F1AA8158
:10035400BB8114960E948B098F01309761F00230A3
:10036400E0E01E0780F0F80131978F01AA81BB817C
:100374001496ED93FC93AA81BB8112960E944506C4
:100384003197AC81A083AA81BB810E948B09FF2392
:1003940012F00E94450606C0AA81BB81EFEFFFEF71
:1003A400ED93FC9319810881259608950E944B06CC
:1003B400E0E8EA83EFE3EB830E94C609EE85FF855C
:1003C400EF3FAFEFFA0749F4E885F985FA93EA932A
:1003D400AEE5B0E00E94BA05B7C0EF3FAFE7FA0759
:1003E40049F4E885F985FA93EA93AFE5B0E00E9411
:1003F400BA05AAC0AB85A73010F0E6E0EB871B85F1
:10040400E12F1150E03019F00E945206F9CFEC852B
:10041400FD856E857F850E94C00921F430E00E942D
:1004240052062DC03B850E94610609F008F40BC0FA
:100434000E9452060E94610628F00E946C060E94E7
:100444007106F8CF0DC00E94610640F40E946C064C
:100454000E947D060E9484063150F5CF0E94520608
:10046400EC85FD856E857F850E9489060E94840641
:100474000E94610620F00E946C060E94710610E042
:10048400EB85E117A8F1AC81BD818E819F810E942B
:1004940090060E948906DF01CB010E941106EC83BD
:1004A400FD836E837F830E946C060E9482080E94F3
:1004B40071070E2F0E9497060E949E06FF2766274B
:1004C40077270E94AA07AC81BD818E819F810E94FB
:1004D40034080E946C060E9432060E948406E12FB2
:1004E4001F5FE03069F60E949706EEE2EC93C8CFF6
:1004F4000E94A3063197AA85A08330302CF431954D
:10050400A885B985EDE203C0A885B985EBE2EC9333
:100514000E94A3060E94A3063197BF01A32FEAE01D
:100524000E941509E05DDB01EC930E94A30631975C
:10053400BF01A32FEAE00E945709E05DDB01EC93C1
:10054400A885B985E0E0EC930E94CD0960960895F2
:10055400BA93AA93EF9761970E94C40910E0FE0131
:10056400E85AFF4F0190F081E02DE887F987FE01FA
:10057400EA5AFF4F0190F081E02DEE83FF83AE81B4
:10058400BF81E0E0F0E0ED93FC93DE01A45ABF4F9D
:100594000E9445063197E4912E2FE03009F4E9C119
:1005A400E12FE03039F4253211F411E002C00E9449
:1005B400A906DEC1E130C1F4253219F40E94A9066E
:1005C400D6C112E0E0E0ED8B00E02D3211F401E041
:1005D400CFC12B3219F4EBE2ED8BCAC1203219F4EE
:1005E400E0E2ED8BC5C102C0E23039F450E013E023
:1005F400203311F40068BCC102C0E33091F420330D
:1006040010F02A3308F007C0AAE05A9F502DE22FB9
:10061400E0535E0FADC140E02E3211F414E0A8C1E6
:100624000FC0E43099F4203310F02A3308F008C0E6
:100634000062AAE04A9F402DE22FE0534E0F98C17A
:100644002C3619F4026015E093C103C0E53009F0BB
:100654008FC1E22FE33659F40E94B0060E94B70618
:100664000E94B006A481AA930E94BE0680C1E5340C
:1006740011F0E53609F403C0E63609F048C0FE017E
:100684007696EE87FF870E94C4060E948F090E9417
:10069400CB060E94D006AD85AA2332F0AD89AB32D9
:1006A40059F0A03281F017C00E94D2060E943E0782
:1006B4000E94CB06EDE2ED8B07FF05C0ED89EA93BE
:1006C4000E94BE0608C0EE85FF853196EE87FF873F
:1006D4003197AD89A08305FF46E0263651F40E9488
:1006E400D2060E94A4094A93AB89BC890E94F804EB
:1006F40009C00E94D2060E94A4094A932A93AC8995
:10070400BD8954DEFE0176960E94D7061EC0E337EB
:1007140039F40E94D0060E94DF060E94D7060EC05C
:10072400E037C1F40E94D0060E94DF06EE87FF87FF
:10073400AE85BF850E94D3051E2F08600F77403019
:1007440011F0411708F001C0142F40E0E0E0EC8BF9
:1007540030E06DC0E43611F0E93611F4046002C0F3
:10076400E537A1F4EAE0EC8B01FF08C0E0E0FAEC25
:100774006AE97BE30E94E4061AE022C0E0E1F7E2C2
:1007840060E070E00E94E40615E01AC0E83511F458
:10079400086003C0E83709F0EAC0E0E1EC8B01FF30
:1007A40008C0E0E0F0E060E070E10E94E40618E0D8
:1007B40007C0E0E0F0E160E070E00E94E40614E0CD
:1007C400403011F00F7701C041E001FF08C00E94E2
:1007D400D0060E94C40614960E948F090FC002FF1F
:1007E40007C00E94D0060E94DF060E94FD0806C0D2
:1007F4000E94D0060E94DF0666277727EA87FB87D8
:100804006C877D8702FF12C0AD85AA2342F40E9443
:10081400D2060E94EF080E94CB06EDE2ED8BED8933
:10082400E03019F01F5F4F5F01C00B7F342F00FDD4
:1008340014C0151710F4351708F00FC007FF08C0CF
:1008440002FF04C00B7F2D89115001C020E301C0B9
:1008540020E20E94A9065150ECCF141790F40061D5
:1008640002FF06C00E94E90609F0515011504150A0
:10087400E0E3EA930E94BE06503009F05150415023
:10088400ECCF312FEC89E030B9F43030A1F003FF24
:1008940006C0EE85FF852591EE87FF8705C0AE85EE
:1008A400BF852D91AE87BF870E94A906503009F0FD
:1008B40051503150EACF51C00E94FB060E943209C8
:1008C4002E2F2A3030F003FF02C0295C01C0295AC0
:1008D40001C0205D04FD21C0213360F4A889B989D9
:1008E4008A899B89A130E0E0BE07E0E08E07E0E062
:1008F4009E0709F40BC0431740F4531710F000FF90
:1009040001C010C020E207FF08C020E3006102FF1D
:1009140004C00E94E90609F051500E94A906503013
:1009240009F0515031500E94FB060E946D090E944B
:10093400CB06EC89A889B9898A899B89FF27662710
:1009440077270E9432090E94E406E889F9896A89B6
:100954007B890E94C00909F0AFCF00FF08C0503066
:1009640031F05150E0E2EA930E94BE06F8CF10E065
:100974000CCEAE81BF810E948B090E94CB09EF96F9
:100984006F960895FF92F82E26970E94C6090E943A
:100994000407309719F4EFEFFFEF23C0DE0116963A
:1009A4000E94E7088D010E940407EE83FF83E0E0C4
:1009B400E887E987DE011A960E94E7080E948B09FE
:1009C400FA93EA931A930A93EEE9F1E0FA93EA931D
:1009D400DE011A96BDDD9F01AE81BF81E0E0EC939C
:1009E400F9010E94CD092A96FF9008950E944B06B2
:1009F400E0E0EA83EFE3EB831A930A93EB85FC854B
:100A0400EF3FAFEFFA0739F40E940B07A6E6B0E018
:100A14000E94BA05A9C0EF3FAFE7FA0739F40E9474
:100A24000B07A7E6B0E00E94BA059EC0AC85AA23D6
:100A340062F4E985FA856B857C850E943E070E94F5
:100A440010070E941507EDE2EC93A885A73010F07B
:100A5400E6E0E8871885E12F1150E03039F00E9474
:100A64001C070E9490060E942107F5CF0E942607CA
:100A74000E94E4070E94100710E0E0E0F0E060E864
:100A84007FE30E9421070E9426070E94C70888F07E
:100A94000E941C070E947D060E9421071F5F1732D7
:100AA40038F00E940B07ABE6B0E00E94BA055CC0C8
:100AB400EACF103029F40E941507E0E3EC9329C033
:100AC400E12F1150E03029F10E941C070E9490068A
:100AD4000E948906DF01CB010E9411060E942107B2
:100AE4000E9426070E9482080E9471070E2F0E940E
:100AF40015070E949E06F0E00E941C070E942D0626
:100B04000E9434080E942F070E9432060E94100798
:100B1400D7CFE885E03021F10E941507EEE2EC938F
:100B2400E885E150E887EF5FD9F00E942F070E9423
:100B34007D060E941007E985FA856B857C850E94F5
:100B440071070E2F0E9415070E949E06F0E00E9476
:100B54002F070E942D060E9432060E941007E0CF44
:100B6400AE81BF81E0E0EC93198108812D96089550
:100B7400BA93AA93E991F991A991B991CD010590FC
:100B84000D920020E1F7FC010895BA93AA93A9916C
:100B9400B991EE27FF276D91662311F03196FBCFB3
:100BA4000895BA93AA93AA27BB27E991F9910590CE
:100BB400002011F01196FBCFFD0108950E94A909B0
:100BC4007B816A81F981E88177FB770F67FD71602A
:100BD400972F9E5781F078F0983190F4AA27BB277D
:100BE400882708948795B795A7959A95D1F7EA230E
:100BF400FB23682305C0E8947727EE27FF276627A1
:100C04006F77769508F4606877F9A991B99189911D
:100C14009991EA17FB076807790797FB08950E94E3
:100C2400A9090E949A090E94E0050E949F0919F4EB
:100C34000E94950909C0E6F70E949509A0E0B0E07A
:100C440080E89FE30E94DD0724960895EA8FFB8FD6
:100C54006C8F7D8F08950E94FD080E94AA07089555
:100C64000E94B3090E94DD0708950E942501A3E0B4
:100C7400B0E00C943407A0E30E94110188EC90E0EA
:100C84000197F1F70895ED91FD913196FE93EE935E
:100C94000895BA93AA932497E0E0E883E98308953A
:100CA400AC81BD818E819F81E0E0F0E060E271E47F
:100CB4000E943408EC83FD836E837F830895EC8166
:100CC400FD816E817F81AC85BD858E859F850E9467
:100CD400C7080895AC85BD858E859F850895EDEC84
:100CE400FCEC6CEC7DE30E943408EC87FD876E8796
:100CF4007F873F5F0895E0E0F0E060E271E40E94E6
:100D040034080895EC87FD876E877F870895A0E0F7
:100D1400B0E080E09FE30E94E4070895EDECFCEC72
:100D24006CEC7DE30E9434080895A885B98511967A
:100D3400A887B98711970895E02FE05DEC93E02F21
:100D44000895E885F9853196E887F98708952A9307
:100D5400AF81B885E985FA8509950895FE01E65ABB
:100D6400FF4F0190F081E02D08953497DE01A65ADB
:100D7400BF4FED93FC930895AF81B885E985FA855B
:100D840009950895DE01A65ABF4F0D90BC91A02D80
:100D94000895EA87FB876C877D870895DFDFE5CFB9
:100DA400EA85FB856C857D850895EE87FF87AE8592
:100DB400BF850E94C7051E2F0895E4DF14960E9484
:100DC4008B090895E88BF98B6A8B7B8B08950B7FD5
:100DD400ED89EA93DE01A95ABF4F0D90BC91A02D75
:100DE400FE01E75AFF4F0190F081E02D0995503044
:100DF4000895E889F9896A897B89AA85BB858C85E8
:100E04009D850895DE011C960E94E7080E948B09C7
:100E14000895EE81FF81FA93EA930895E987FA87AA
:100E24006B877C870895AE81BF811196AE83BF83A3
:100E340011970895AA81BB818C819D810895EA83CD
:100E4400FB836C837D830895EA81FB816C817D81C2
:100E5400A985BA858B859C850895A985BA858B85D6
:100E64009C850895109639F080ED97E00197F1F78D
:100E7400A8951197C9F7089530976040704009F01C
:100E840070580895552342F4503811F4E0FF04C01B
:100E94003196691F791F6BF050E8572711F45F935F
:100EA400CFC05F3F31F0660F000C57956795752FE3
:100EB40008955F9300200AF0CFC0C8C050E8192EEF
:100EC4001522880F991F9527550F879550E8072EEF
:100ED4000522660F771F7527550F67950895689447
:100EE40001C0E8945F93F2DF703818F07F3F08F494
:100EF400A7C056E1571BAAF4519558300EF4593047
:100F040030F0EFEFFFEF6FEF7FE777F91AC0772745
:100F14005523B9F0EE0FFF1F661F771F5A95D1F7BF
:100F240010C07727583028F0EF2FF62F672F58502E
:100F3400F9CF552331F076956795F795E7955A954E
:100F4400D1F700200AF449D15F910895689401C053
:100F5400E894309760407040B1F0002426F0772385
:100F640012F400943AD1172E7EE1112032F07A95D2
:100F7400EE0FFF1F661F111CF9CFEF2FF62F612D07
:100F84005F938ADF5F9108954F93AF01FD01DA010A
:100F9400AB01BC01CA01402D012C142E4F910895C0
:100FA400EA0FFB1F681F0895E095F0956095EF5FC9
:100FB400FF4F6F4F08955F9381DF903871F150E8D0
:100FC400152604C05F937ADF903839F1703821F127
:100FD400572F591B2BF112F4D7DFFACF583118F0E1
:100FE400AA27BB278827583028F0AB2FB82F88278B
:100FF4005850F9CF552329F08695B795A7955A955A
:10100400D9F7502D512572F0CBDF38F46795F79559
:10101400E795739513F420C0B7DF3EDF5F91089521
:10102400D8F7FBCFEA1BFB0B680B51F010F40094CC
:10103400BBDF662392F3EE0FFF1F661F7A95CBF793
:10104400EE27FF27662777275F910895EFEFFFEFDD
:101054006FE77FEF5F910895EFEFFFEF6FE77FE7B3
:101064005F9108955F932ADF703851F3903841F30C
:1010740001240894791F23F41CF300203AF3ECCFE5
:101084000F921F932F933F934F9311272227992752
:10109400689FA0018F9F302D410D591F6B9F300D0C
:1010A400411D591F8E9F27D0BF9F25D06A9F23D0F3
:1010B400BE9F1DD0AF9F1BD0AE9F110D291F391F9E
:1010C400491F591FE32FF42F652F522F4F913F9142
:1010D4002F911F910F9066232AF0550FEE1FFF1FCB
:1010E400661F02C073954BF2CDDE5F910895100D1B
:1010F400211D391F02C0200D311D491F591F08959C
:101104005F93DCDE703821F411200AF49FCFA4CF62
:10111400903809F495CF01240894970B1BF4D4F369
:101124000020F3CF792F1F932F933F934F931124D4
:101134001127222733274427552790E2AE17BF07EC
:101144008607410730F0AE1BBF0B860B410B08949A
:1011540001C08894551F221F331F111CAA1FBB1FD7
:10116400881F441F9A9551F7F901612D4F913F91C2
:101174002F911F91662332F0550FEE1FFF1F661F3C
:101184007A9543F27FDE5F91089599239AF077234D
:1011940042F0971748F029F4AE17BF07860720F0EE
:1011A40031F0989488940895989408940895189424
:1011B400889408957723C2F7971798F3A9F7EA1745
:1011C400FB07680788F399F3ECCF0024AF0DB01D3B
:1011D4000895F195E195F0400895F0956095709526
:1011E400E195FF4F6F4F7F4F0895FE2FFF0FFF0BC9
:1011F4006F2F7F2F08956F2F660F660B762F08953C
:101204008B2F880F880B982F0895002498E0AA0F3D
:10121400001C0E1A10F40E0E01C0A1609A95B9F7C5
:10122400EA2FA02D08955BD0F0DF0EF4E195089528
:101234000024112490E1AA0FBB1F001C111C0E1ADC
:101244001F0A18F40E0E1F1E01C0A1609A9599F78B
:10125400FD01D00108954FD0EBDF0EF4BADF0895FD
:101264003F934F935F93002411244427552730E282
:10127400AA0FBB1F881F991F001C111C441F551F58
:101284000E1A1F0A460B570B28F40E0E1F1E461F7C
:10129400571F01C0A1603A9559F7FD01BC01D00167
:1012A400CA015F914F913F910895E894A7FF02C04E
:1012B400A1956894E7FDE195A8DFEA2F0EF4E19586
:1012C4000895E894F7FF02C084DF6894EA23FB23BF
:1012D4000EF47FDF0895C4DFFD01BC010895E89496
:1012E400E7FF02C0E1956894A7FF04C0A19500F848
:1012F400039400FA0895E894F7FF02C06ADF689443
:10130400B7FF06C0A095B095119600F8039400FAB3
:101314000895ED91FC9111970895ED91FD916D91D2
:101324007C9113970895E881F9816A817B810895FE
:10133400A881B9818A819B810895E883F9836A83AE
:101344007B8308957A936A93FA93EA9308959A9320
:101354008A93BA93AA930895689401C0E89401D03B
:10136400F8DD182E862F612D192E972F712D1B2E27
:10137400BF2FF12D1A2EAE2FE12D08953097604026
:10138400704008955A934A933A932A931A930A936E
:1013940008955D814C813B812A81198108810895DA
:00000001FF
