:0E0000000C943C000C9400000C9400000C9436
:10000E0000000C9400000C9400000C9400000C9462
:10001E0000000C9400000C9400000C9400000C9452
:10002E0000000C9400000C9400000C9400000C9442
:10003E0000000C9400000C9400000C9400000C9432
:10004E0000000C9400003F065B4F666D7D077F6FCE
:10005E000000000000000000000000000000000092
:10006E0000000A00600154000000F894EE27ECBB7B
:10007E00F1E0FBBFEBBFE5BF8DE0A2E0BB27ED9348
:10008E008A95E9F780E094E0A0E6ED930197E9F711
:10009E00E0E7F0E085919591009761F0A591B5911B
:1000AE0005901590BF01F00105900D920197E1F7B3
:1000BE00FB01F0CFEFE5EDBFE4E0EEBFC0E6D1E02F
:1000CE000C94690007D016D03BD033D055D0B4D0A5
:1000DE00FCCFFFCF1A93EFEFE7BB10E0143040F4E4
:1000EE00EFEFE8BB59D1E0E0E8BB56D11F5FF6CF8A
:1000FE00199108951A930A93EFEFE7BBE0E8E8BB76
:10010E0000E010E0E8EBFBE0E017F10789F0E8B360
:10011E00F0E0F595E795E8BBE8B3E03011F4E0E8E0
:10012E00E8BBA2E3B0E00E944C020E5C1F4FEACF88
:10013E0020C0E0E0EABBEFEFE7BBE9B3E8BB089510
:10014E001A930A9309E010E0EFEFE4BBEFE0E1BB96
:10015E00E0E0E2BBEFEFFFEFE017F10751F0A0E6B2
:10016E00B1E0A00FB11FEC91E5BB16D101501040CC
:10017E00F1CF0991199108952897E0E0E883E9837A
:10018E00EA83EB83EC83ED83EE83EF8309D10024C6
:10019E000216030608F04CC09A01283EE3E03E0723
:1001AE0048F015D11AD122D1EA87FB8728D1EC87E6
:1001BE00FD871FC02436E0E03E0730F008D10DD198
:1001CE0015D1EA87FB8712C02A30E0E03E0728F0FF
:1001DE00FED003D1E887F98706C0F9D0EE83FF83FE
:1001EE00E0E0E887E987E0E0EA87EB87E0E0EC878C
:1001FE00ED8700E010E00931E0E01E07A8F48B9ACD
:10020E00EE81FF8103D18B988A9AE885F98506D114
:10021E00EA85FB85FBD08998889AEC85FD85F6D01A
:10022E0088980F5F1F4FE7CF889842505040AFCF4E
:10023E000E9481022E960895629782E1A0E0B0E0BE
:10024E00EEE5F0E00E948802ABD04E835F83F2D0E1
:10025E000E947702E887F987EDD0F1D00E947702ED
:10026E00EA87FB87E7D0EBD00E947702EC87FD8709
:10027E00E1D0E5D00E947702EE87FF8700240216B8
:10028E00030608F085C09A01283EE3E03E0758F0C9
:10029E009ED0DAD0EA8BFB8BB2D0EC8BFD8BAFD03D
:1002AE00EE8BFF8B21C02436E0E03E0740F08FD06E
:1002BE00CBD0EA8BFB8BA3D0EC8BFD8B12C02A30FC
:1002CE00E0E03E0728F083D0BFD0EA8BFB8B06C060
:1002DE007ED0E88BF98BE0E0EA8BEB8BE0E0EC8BE9
:1002EE00ED8BE0E0EE8BEF8B00E010E00931E0E00B
:1002FE001E07A8F48B9AE889F98988D08B988A9A78
:10030E00EA89FB898BD0EC89FD8980D08998889AFF
:10031E00EE89FF897BD088980F5F1F4FE7CF8898B3
:10032E0042505040879902C092D0A1D0869910C0F9
:10033E00EE89FF89A8EEB3E00E9456027E2F8F2F22
:10034E00AC85BD85E4E60E945E027E0F8F1F8FD0C6
:10035E0085990EC07CD0AA85BB85EAE00E945E021C
:10036E00E70FF81FA889B989AE0FBF1F1297AD010D
:10037E0084990DC06CD0AA89BB89EAE00E945E0206
:10038E00E70FF81FA885B985EA0FFB1FAF0176CFDF
:10039E000E94810268960895A4EFB1E00C944C027D
:1003AE000E947A0200E010E020E030E040E050E0F1
:1003BE00E0E0EABBEFEFE4BBE0E0E1BB29B33327BB
:1003CE00AAE0A29FF001A39FF00DAF010895D901FD
:1003DE00EAE0F0E00E9477020895EE83FF83D901F0
:1003EE00EAE0F0E00E9464029F01F1CFE887F9870E
:1003FE00D901EAE0F0E00E9464029F01E8CFD90142
:10040E00EAE0F0E00E9464029F01E1CFE05AFE4F65
:10041E00E081E5BBA1E0B0E00C944C02E05AFE4F47
:10042E00E081E058E5BBA1E0B0E00E944C028A9862
:10043E00899A0895AE81BF81EAE0F0E008950E94A6
:10044E006402EE83FF83F6CFE88BF98BD8CFEE856F
:10045E00FF85A8EEB3E00E9456027E2F8F2FAC8947
:10046E00BD89E4E60E945E027E0F8F1F0895AA8961
:10047E00BB89EAE00E945E02E70FF81FA889B989DE
:10048E00AE0FBF1F1297AD010895109639F080ED93
:10049E0097E00197F1F7A8951197C9F70895FA9F7C
:1004AE00F02DEB9FF00DEA9FE02DF10D08956E2FCC
:1004BE006A9FF0016B9FF00D08950024112490E1C6
:1004CE00AA0FBB1F001C111C0E1A1F0A18F40E0EC9
:1004DE001F1E01C0A1609A9599F7FD01D0010895E4
:1004EE00ECDFFD0108955A934A933A932A931A9397
:1004FE000A9308955D814C813B812A81198108817F
:10050E000895AC0FBD1F05900D928A95E1F70895E1
:00000001FF
