:040000000C943B0021
:100004000C9400000C9400000C9400000C9400006C
:100014000C9400000C9400000C9400000C9400005C
:100024000C9400000C9400000C9400000C9400004C
:100034000C9400000C9400000C9400000C9400003C
:100044000C9400000C9400000C9400000C9400002C
:100054003F065B4F666D7D077F6F3F065B4F666DA6
:100064007D077F6F0A00600154000A006A015E0088
:100074000000F894EE27ECBBF1E0FBBFEBBFE5BF5B
:100084008DE0A2E0BB27ED938A95E9F780E094E048
:10009400A0E6ED930197E9F7E8E6F0E08591959104
:1000A400009761F0A591B59105901590BF01F001FD
:1000B40005900D920197E1F7FB01F0CFEFE5EDBF5D
:1000C400E4E0EEBFC0E6D1E00C942202BA93AA9316
:1000D4001A93EB810E94250219F4EFEFEABB14C0D6
:1000E400E230A0E0FA0771F0E330A0E0FA0719F477
:1000F400EFEFE4BB09C0E430A0E0FA0719F4EFEF36
:10010400E1BB02C0EFEFE7BB10E0EC811E1770F417
:10011400EFEFE8BBA981BA810E945402E0E0E8BB9A
:10012400A981BA810E9454021F5FEFCF18810C94F9
:100134007001BA93AA931A930A93EFEFE7BBEC8189
:100144000E94250211F4E1E025C0E230A0E0FA07A4
:1001540011F4E2E01FC0E330A0E0FA0711F4E4E098
:1001640019C0E430A0E0FA0711F4E8E013C0E53068
:10017400A0E0FA0711F4E0E10DC0E630A0E0FA07D0
:1001840011F4E0E207C0E730A0E0FA0711F4E0E47C
:1001940001C0E0E8E8BB00E010E0EA81FB81E01781
:1001A400F10789F0E8B3E03011F4E0E8E8BBA4E635
:1001B400B0E00E9454020C591F4FE8B3F0E0F595EB
:1001C400E795E8BBEACF0C946E01AA931A93EA81EF
:1001D4000E942502C1F0E230A0E0FA0721F4E0E039
:1001E400E7BB16B313C0E330A0E0FA0721F4E0E064
:1001F400E4BB13B30BC0E430A0E0FA0721F4E0E061
:10020400E1BB10B303C0E0E0EABB19B3E9810E948B
:10021400250221F4EFEFEABB1BBB17C0E230A0E0DC
:10022400FA0781F0E330A0E0FA0721F4EFEFE4BB32
:1002340015BB0BC0E430A0E0FA0721F4EFEFE1BBFB
:1002440012BB03C0EFEFE7BB18BB188123960895D8
:10025400AA931A930A93EFEFE4BBAB81A130D9F0D0
:10026400EB81E030D1F4EA810E94250211F4899AED
:1002740014C0E230A0E0FA0711F48A9A0EC0E33009
:10028400A0E0FA0711F48B9A08C0E430A0E0FA0762
:1002940011F48C9A02C0EFE0E1BBAC81A13069F4A7
:1002A40000E010E0EAE0F0E0E017F10729F00E9436
:1002B4002A020F5F1F4FF6CF0FC0EC81E03061F4CC
:1002C40009E010E0EFEFFFEFE017F10729F00E94DB
:1002D4002A0201501040F6CF19810881259608950D
:1002E400AA932897E0E0E883E983EA83EB83EC832D
:1002F400ED83EE83EF830E94740200E010E020E0BF
:1003040030E040E050E0EABBEFEFE4BBE0E0E1BB0B
:1003140029B33327AAE0A29FF001A39FF00DAF01F8
:1003240000240216030608F06BC09A01283EE3E09D
:100334003E0798F00E9434020E943A020E9443024F
:10034400EA87FB87D901EAE0F0E00E945E029F01A0
:100354000E943402EC87FD8725C02436E0E03E0786
:1003640048F00E9434020E943A020E944302EA8743
:10037400FB8715C02A30E0E03E0738F00E943402C3
:100384000E943A02E887F98707C00E943402EE838C
:10039400FF83E0E0E887E987E0E0EA87EB87E0E0D5
:1003A400EC87ED8700E010E00931E0E01E0710F56E
:1003B4008B9AEE81FF810E944C028B988A9AE88581
:1003C400F985E659FE4FE081E058E5BBA1E0B0E0D5
:1003D4000E9454028A98899AEA85FB850E944C02FD
:1003E4008998889AEC85FD850E944C0288980F5F55
:1003F4001F4FDACF8898AE85BB274A1B5B0B90CF83
:100404000E947B022F960895E6E0EA93E2E0EA93E5
:10041400A4EFB1E00E946800E3E0EA93A0E1B7E250
:100424000E949B00E1E0EA93A2E00E94E700E0E082
:10043400EA93EA93A2E00E942A01A3E051DF08951F
:10044400E3DFFFCFFFCFF0E0E130A0E0FA0708954B
:10045400A0E6B1E0A00FB11FEC91E5BBA4EFB1E0C1
:100464000C945402D901EAE0F0E00E94710208956C
:10047400EE83FF83D901EAE0F0E00E945E029F016F
:10048400F1CFE887F987D901EAE0F0E00E945E0243
:100494009F01E8CFE659FE4FE081E5BBA1E0B0E063
:1004A4000C945402109639F080ED97E00197F1F71F
:1004B400A8951197C9F708950024112490E1AA0F73
:1004C400BB1F001C111C0E1A1F0A18F40E0E1F1E4F
:1004D40001C0A1609A9599F7FD01D0010895ECDF60
:1004E400FD0108955A934A933A932A931A930A93CF
:1004F40008955D814C813B812A8119810881089589
:00000001FF
