:020000000C945E
:1000020033000C9400000C9400000C9400000C943B
:1000120000000C9400000C9400000C9400000C945E
:1000220000000C9400000C9400000C9400000C944E
:1000320000000C9400000C9400000C9400000C943E
:1000420000000C9400000C9400000C9400000C942E
:1000520000003F065B4F666D7D077F6F0A006001FF
:1000620054000000F894EE27ECBBF1E0FBBFEBBFBD
:10007200E5BF8DE0A2E0BB27ED938A95E9F780E02A
:1000820094E0A0E6ED930197E9F7EEE5F0E08591C3
:100092009591009761F0A591B59105901590BF01DA
:1000A200F00105900D920197E1F7FB01F0CFEFE52A
:1000B200EDBFE4E0EEBFC0E6D1E00C946000A5E045
:1000C20002D0FFCFFFCFAA932897E0E0E883E9832D
:1000D200EA83EB83EC83ED83EE83EF830E942B01B3
:1000E20000E010E020E030E040E050E0EABBEFEF5B
:1000F200E4BBE0E0E1BB29B33327AAE0A29FF00111
:10010200A39FF00DAF0100240216030608F05EC0A3
:100112009A01283EE3E03E0778F05CD061D069D0D6
:10012200EA87FB87D901EAE0F0E00E9415019F010E
:1001320051D0EC87FD871FC02436E0E03E0730F047
:1001420049D04ED056D0EA87FB8712C02A30E0E071
:100152003E0728F03FD044D0E887F98706C03AD05E
:10016200EE83FF83E0E0E887E987E0E0EA87EB8758
:10017200E0E0EC87ED8700E010E00931E0E01E07E7
:10018200F8F48B9AEE81FF813DD08B988A9AE885AC
:10019200F985E05AFE4FE081E058E5BBA1E0B0E00E
:1001A2000E940B018A98899AEA85FB852BD089984F
:1001B200889AEC85FD8526D088980F5F1F4FDDCF8A
:1001C2008898AE85BB274A1B5B0B9DCF0E943201EC
:1001D2002F960895D901EAE0F0E00E9428010895DF
:1001E200EE83FF83D901EAE0F0E00E9415019F014E
:1001F200F1CFE887F987D901EAE0F0E00E94150122
:100202009F01E8CFE05AFE4FE081E5BBA1E0B0E0FC
:100212000C940B01109639F080ED97E00197F1F7FD
:10022200A8951197C9F708950024112490E1AA0F07
:10023200BB1F001C111C0E1A1F0A18F40E0E1F1EE3
:1002420001C0A1609A9599F7FD01D0010895ECDFF4
:10025200FD0108955A934A933A932A931A930A9363
:1002620008955D814C813B812A811981088108951D
:00000001FF
