:080000000C945D000C9400005B
:100008000C9400000C9400000C9400000C94000068
:100018000C9400000C9400000C9400000C94000058
:100028000C9400000C9400000C9400000C94000048
:100038000C948A000C9400000C9400000C940000AE
:100048000C9400000C9400000C9400001027E803A6
:1000580064000A0001000010000110000100513185
:1000680020737461727465642100414443282564D7
:10007800293A2025646D7600202020202020202089
:100088002020202020202020200080C001002D4E8C
:10009800414E00494E4600000C0060016600120007
:1000A8006C01800002008F0192000100930194000E
:1000B8000000F894EE27ECBBF1E0FBBFEBBFE5BF17
:1000C8008DE0A2E0BB27ED938A95E9F780E094E004
:1000D800A0E6ED930197E9F7E0EAF0E085919591C4
:1000E800009761F0A591B59105901590BF01F001B9
:1000F80005900D920197E1F7FB01F0CFEFE5EDBF19
:10010800E4E0EEBFC0E6D1E00C943A018A93AA93EA
:10011800BA93EA93FA93EFB7EA93E0918E01AEE7C8
:10012800B1E0F0E0EE0FFF1FAE0FBF1FE4B1F5B175
:10013800ED93FC93A0918E01AF5FA0938E01A83040
:1001480018F0E0E0E0938E01E0918E01E05CE7B901
:100158008BE18A95F1F7369AE991EFBFF991E99128
:10016800B991A99189911895AA93E881E064E7B9B2
:100178008BE18A95F1F7369A349BFECF349AE4B135
:10018800F5B10C94F50165970E948E05CCD0A0E6D8
:10019800B1E0EAD020E030E02830E0E03E070CF0A3
:1001A80061C0A22FE1DF8F01A5E0B0E00E94420507
:1001B800AF01DA01EFEFF3E00E945A05AF01A8EEB4
:1001C800B3E00E944205AF010E9435050E94A004D9
:1001D800DF01CB010E94D0030E9469048F01FE0158
:1001E8003696FA93EA93E2E7F0E0FA93EA93F90194
:1001F8000E9435050E948405F8010E9435050E9479
:10020800840588E00E946B032C96E0E0EA93A1E065
:100218007DD0ACE6B1E0A8D0E0E0EA93A1E076D0EA
:10022800DE011696A1D0E0E0E98FEA8FA98DBA8D9C
:10023800A031E7E2BE079CF4E0E0EF8BE88FAF89DE
:10024800B88DD29734F4EF89F88D3196EF8BF88F0B
:10025800F6CFE98DFA8D3196E98FFA8FE7CF2F5FC8
:100268003F4F9ACF0E9495056B960895E0E0EABB50
:10027800EBBBE7BBE8BBEFEFE4BBE0E0E5BBE1BB12
:10028800E2BBE3BFE2BFECBFEFBDEEBDEDBDECBD31
:10029800E7BDE6BDEBBDEABDE9BDE8BDE2BDE5BD34
:1002A800E4BDE3BDE9BFE5BFE4BFEAB9E0E8E8B90A
:1002B800E0E4E7B9E3EAE6B9E0E0E0BFEDB9E6BFBC
:1002C800A0E163D078945FDFFFCFFFCFAA93E5B3B7
:1002D800EF70AE2FE881E07FEA2BE5BB8DE08A95D1
:1002E800F1F7AA9A8DE08A95F1F7AA988DE08A9598
:1002F800F1F777C0AA93A881E9DFE881E295E8835E
:10030800A881E4DF85E88A95F1F76BC0AA93E881B4
:10031800F0E0E157FE4FE081A981AE0FEBDF598095
:10032800488022960895A2E00E940004ACE0E2DF33
:10033800A1E00E940004E0E04E2E5E2E0895AA93EC
:10034800A881AA3011F0571448F0E0E0EA934394EA
:10035800A42DDCDFA881AA3009F443C05394A89ADD
:10036800A881C8DFA8983DC0BA93AA931A93A98117
:10037800BA81ED91A983BA831E2FE03019F0A12F1D
:10038800DEDFF5CF188123960895AA93E4B3E06FD2
:10039800E4BBA29AA09AA19AAA98A898A99878804A
:1003A800E881E058E0939101E881E054E0939201FC
:1003B800A4E1B0E00E943A040E9406040E940604E8
:1003C8000E940604A0E282DF88EC90E00197F1F732
:1003D800A8E290DFA4E08EDFA5E88CDFA6E08ADF44
:1003E800A2DF21960895BA93AA931A930A93AA8131
:1003F800BB8112960E946D05309759F1AA81BB8185
:1004080014960E946D058F01309761F00230E0E08C
:100418001E0798F0F80131978F01AA81BB811496C5
:10042800ED93FC93AA81BB811296ED91FD913196D3
:10043800FE93EE933197AC81A083AA81BB810E9481
:100448006D05FF232AF0ED91FD913196FE93EE9311
:1004580006C0AA81BB81EFEFFFEFED93FC931981F2
:10046800088125960895BA93AA9326970E948E0527
:1004780010E0AC85BD85E0E0F0E0ED93FC93EA89FF
:10048800FB893196EA8BFB8B3197E4912E2FE03074
:1004980009F415C1E12FE03039F4253211F411E0E7
:1004A80002C00E940E040AC1E130A9F4253219F4F1
:1004B8000E940E0402C112E040E000E02D3211F467
:1004C80001E0FCC02B3211F44BE2F8C0203211F4E9
:1004D80040E2F4C002C0E23039F450E013E02033C7
:1004E80011F40068EBC003C0E33009F0E7C0203323
:1004F80010F02A3308F007C0AAE05A9F502DE22FC7
:10050800E0535E0FDBC0E22FE33649F40E94150486
:10051800E889F989A481AA930E941B04CEC0E33715
:1005280041F40E9415040E9421040E94E7031E2F33
:100538000AC0E03761F40E9415040E9421040E9459
:10054800F3031E2F086002600F7730E034C0E436F2
:1005580011F0E93611F4046002C0E53731F4E4E53E
:10056800F0E0EE83FF8315E00CC0E83511F4086075
:1005780003C0E83709F0A1C0EEE5F0E0EE83FF83A1
:1005880014E002FF14C00E9415040E942B04AB85DE
:10059800AA233AF4EA85FB850E942905EA87FB87A6
:1005A8004DE2403011F01F5F01C00B7F04C00E9474
:1005B80015040E942B0400FD11C0151778F407FFDD
:1005C80008C002FF04C00B7F242F115001C020E394
:1005D80001C020E20E940E045150EFCF312F01FFDD
:1005E80017C03030A1F003FF06C0EE81FF812591CE
:1005F800EE83FF8305C0AE81BF812D91AE83BF839B
:100608000E940E04503009F051503150EACF4BC0CF
:1006180020E3EE81FF810E947105E887F987EE816A
:10062800FF813296EE83FF83E885F985AA85BB852D
:10063800AE17BF0750F02F5FA885B985EA85FB85FF
:10064800EA1BFB0BEA87FB87EFCF2A3328F003FF6F
:1006580002C0295F01C0295D04FD1AC0213320F4BE
:10066800A885B985119709F409C0531710F000FF40
:1006780001C013C020E207FF0BC020E3006102FFA6
:1006880007C00B7F4A930E941B04503009F0515059
:100698000E940E04503009F051503150A885B98598
:1006A800129708F0B5CF00FF08C0503031F0515014
:1006B800E0E2EA930E941B04F8CF10E0E0CEAC859C
:1006C800BD850E946D050E94950564960895FF9268
:1006D800F82E26970E9490050E943304309719F44B
:1006E800EFEFFFEF23C0DE0116960E9425058D016E
:1006F8000E943304EE83FF83E0E0E887E987DE01A8
:100708001A960E9425050E946D05FA93EA931A939A
:100718000A93E7EFF1E0FA93EA93DE011A96A3DE73
:100728009F01AE81BF81E0E0EC93F9010E9497053B
:100738002A96FF9008950E9489057B816A81F98134
:10074800E88177FB770F67FD7160972F9E5781F0DF
:1007580078F0983190F4AA27BB27882708948795C2
:10076800B795A7959A95D1F7EA23FB23682305C087
:10077800E8947727EE27FF2766276F77769508F4A2
:10078800606877F9A991B99189919991EA17FB075E
:100798006807790797FB08950E9489050E947A05E2
:1007A8000E949F030E947F0519F40E94750509C0E5
:1007B800E6F70E947505A0E0B0E080E89FE30E949C
:1007C800D30424960895BA93AA93A991B991EE27D0
:1007D800FF276D91662311F03196FBCF0895BA93E8
:1007E800AA93AA27BB27E991F9910590002011F057
:1007F8001196FBCFFD0108950E947E01A3E0B0E0B1
:100808000C943A04A0E30E946A0188EC90E00197F6
:10081800F1F708952A93AD85BE85EF85F889099586
:100828000895E889F9893497E88BF98B0895AD859F
:10083800BE85EF85F88909950895A889B989149620
:100848000E946D05EE83FF83AE81BF810895A8895C
:10085800B98914960E946D05EA87FB870895DE0121
:100868001C960E9425050E946D050895109639F082
:1008780080ED97E00197F1F7A8951197C9F70895CA
:1008880050E8572711F45F93CAC05F3F31F0660FF5
:10089800000C57956795752F08955F9300200AF00F
:1008A800CAC0C3C050E8192E1522880F991F952772
:1008B800550F879550E8072E0522660F771F752775
:1008C800550F67950895689401C0E8945F93F2DF27
:1008D800703818F07F3F08F4A2C056E1571BAAF4FD
:1008E800519558300EF4593030F0EFEFFFEF6FEFBD
:1008F8007FE777F91AC077275523B9F0EE0FFF1F66
:10090800661F771F5A95D1F710C07727583028F0FF
:10091800EF2FF62F672F5850F9CF552331F07695E2
:100928006795F795E7955A95D1F700200AF491D085
:100938005F910895689401C0E894309760407040D2
:10094800B1F0002426F0772312F4009482D0172EF9
:100958007EE1112032F07A95EE0FFF1F661F111C01
:10096800F9CFEF2FF62F612D5F938ADF5F910895FE
:100978004F93AF01FD01DA01AB01BC01CA01402D63
:10098800012C142E4F910895EA0FFB1F681F08953C
:10099800E095F0956095EF5FFF4F6F4F08955F9377
:1009A80081DF903849F150E81526703821F1572F2A
:1009B800591B2BF112F4DCDFFACF583118F0AA27B3
:1009C800BB278827583028F0AB2FB82F88275850D6
:1009D800F9CF552329F08695B795A7955A95D9F754
:1009E800502D512572F0D0DF38F46795F795E795CB
:1009F800739513F420C0BCDF43DF5F910895D8F7E7
:100A0800FBCFEA1BFB0B680B51F010F40094C0DF1E
:100A1800662392F3EE0FFF1F661F7A95CBF7EE273A
:100A2800FF27662777275F910895EFEFFFEF6FE7BE
:100A38007FEF5F910895EFEFFFEF6FE77FE75F913B
:100A480008950024AF0DB01D0895F195E195F0408B
:100A58000895F09560957095E195FF4F6F4F7F4F22
:100A680008956F2F660F660B762F0895FA9FF02D65
:100A7800EB9FF00DEA9FE02DF10D08951CD0F6DFF5
:100A88000EF4E3DF08950024112490E1AA0FBB1FA0
:100A9800001C111C0E1A1F0A18F40E0E1F1E01C08E
:100AA800A1609A9599F7FD01D001089504D0EBDF74
:100AB8000EF4CBDF0895E894F7FF02C0C6DF689410
:100AC800B7FF06C0A095B095119600F8039400FAF8
:100AD8000895ED91FC91119708950590F491E02DFA
:100AE8000895E881F9816A817B810895A881B98197
:100AF8008A819B810895E883F9836A837B830895BB
:100B08007A936A93FA93EA9308959A938A93BA9395
:100B1800AA9308955A934A933A932A931A930A9355
:100B280008955D814C813B812A811981088108954E
:00000001FF
