:0E0000000C945F040C9400000C9400000C940F
:10000E0000000C9400000C9400000C9400000C9462
:10001E0000000C948C040C9400000C9400000C94C2
:10002E0000000C9400000C9400000C9400000C9442
:10003E0000000C9400000C9400000C9400000C9432
:10004E0000000C9400000507206000000000000076
:10005E00005F00000007000700147F147F14242A9D
:10006E007F2A122313086462364955225000050375
:10007E000000001C2241000041221C00082A1C2AFC
:10008E000808083E08080050300000080808080854
:10009E00003030000020100804023E5149453E0059
:1000AE00427F400042615149462141454B3118146F
:1000BE00127F1027454545393C4A4949300171099F
:1000CE0005033649494936064949291E0036360088
:1000DE0000005636000000081422411414141414A3
:1000EE0041221408000201510906324979413E7E2F
:1000FE001111117E7F494949363E414141227F41CE
:10010E0041221C7F494949417F090901013E414174
:10011E0051327F0808087F00417F41002040413F57
:10012E00017F081422417F404040407F0204027F3D
:10013E007F0408107F3E4141413E7F090909063E7A
:10014E004151215E7F09192946464949493101012C
:10015E007F01013F4040403F1F2040201F7F20185D
:10016E00207F631408146303047804036151494526
:10017E004300007F4141020408102041417F0000EE
:10018E0004020102044040404040000102040020ED
:10019E00545454787F4844443838444444203844B6
:1001AE0044487F3854545418087E090102081454E8
:1001BE00543C7F0804047800447D40002040443DB8
:1001CE0000007F10284400417F40007C0418047812
:1001DE007C0804047838444444387C141414080809
:1001EE001414187C7C080404084854545420043F0A
:1001FE004440203C4040207C1C2040201C3C403091
:10020E00403C44281028440C5050503C4464544CFC
:10021E0044000836410000007F000000413608000F
:10022E0002010204027F4141417F80004000000034
:10023E0000000000000000000000000000000000B0
:10024E0000000000000000000000000000000000A0
:10025E000000000000000000000000000000000090
:10026E000000000000000000000080C0C080000000
:10027E000000000000000000000000000000000070
:10028E000000000000000000000000000000000060
:10029E000000000000000000000000000000000050
:1002AE000000000000000000000000000000000040
:1002BE000000000000000000000000000000000030
:1002CE000000000000000000000000000000000020
:1002DE000000000000000000000000000000000010
:1002EE000000000000000080F8FFFFFFFFFFFFF896
:1002FE00C000000000000000000000000000000030
:10030E0000000000000000000000000000000000DF
:10031E0000000000000000000000000000000000CF
:10032E0000000000000000000000000000000000BF
:10033E0000000000000000000000000000000000AF
:10034E00000000000000000000000000000000009F
:10035E00000000000000000080808080808080808F
:10036E008080808080E0FCFFFFFF3F07031FFFFFC0
:10037E00FFFCE08080808080808080808080808014
:10038E00000000000000000000000000000000005F
:10039E00000000000000000000000000000000004F
:1003AE00000000000000000000000000000000003F
:1003BE00000000000000000000000000000000002F
:1003CE00000000000000000000000000000000001F
:1003DE00000000060F1F3F7FFFFFFFFFFFEFCF8FD5
:1003EE008F0F0F0F0F0F0F0F0701000000000107F7
:1003FE000F0F0F0F0F0F0F8F8FCFEFFFFFFFFFFFAF
:10040E007F3F1F0F060000000000000000000000EC
:10041E0000000000000000000000000000000000CE
:10042E0000000000000000000000000000000000BE
:10043E0000000000000000000000000000000000AE
:10044E00000000000000000000000000000000009E
:10045E0000000000000000000000010307070F1F4E
:10046E00FFFFFEFCFC00000000000000000000008A
:10047E00000000FCFCFEFFFF9F0F070703010000BA
:10048E00000000000000000000000000000000005E
:10049E00000000000000000000000000000000004E
:1004AE00000000000000000000000000000000003E
:1004BE00000000000000000000000000000000002E
:1004CE00000000000000000000000000000000001E
:1004DE000000000000000000000000000080F8FF97
:1004EE00FFFFFF8FC0E0F0F0F8FCFC7E7EFCFCF816
:1004FE00F0F0E0C08FFFFFFFFFF8C000000000002B
:10050E0000000000000000000000000000000000DD
:10051E0000000000000000000000000000000000CD
:10052E0000000000000000000000000000000000BD
:10053E0000000000000000000000000000000000AD
:10054E00000000000000000000000000000000009D
:10055E000000000000000000000000007CFFFFFF14
:10056E007F3F1F1F0F07070301010000000000015E
:10057E000307070F1F1F3F7FFFFFFF7C00000000D8
:10058E00000000000000000000000000000000005D
:10059E00000000000000000000000000000000004D
:1005AE00000000000000000000000000000000003D
:1005BE00000000000000000000000000000000002D
:1005CE00000000000000000000000000000000001D
:1005DE00000000000000000000000000000000000D
:1005EE0000000000000000000000000000000000FD
:1005FE0000000000000000000000000000000000ED
:10060E0000000000000000000000000000000000DC
:10061E0000000000000000000000000000000000CC
:10062E000000000000000000000000000000FF00BD
:10063E00FF00FF000000F600F600F600FF00FF00CE
:10064E00FF00FF000000E700DB00BD007E00FF00A2
:10065E00FF00FF00FF00FF00FF000000F600F600A5
:10066E00F600FF00FF00FF00FF000000E700DB00C8
:10067E00BD007E00FF00FF00FF00FF00FF00FF0037
:10068E000000F600F600F600FF00FF00FF00FF007E
:10069E000000E700DB00BD007E007E00FF00FF00D3
:1006AE00FF00FF00FF000000F600F600F600FF005E
:1006BE00FF00FF00FF000000E700DB00BD00BD00F3
:1006CE007E00FF00FF00FF00FF00FF000000F600AD
:1006DE00F600F600FF00FF00FF00FF000000E7003D
:1006EE00DB00DB00BD007E00FF00FF00FF00FF000F
:1006FE00FF000000F600F600F600FF00FF00FF000E
:10070E00FF000000E700E700DB00BD007E00FF00F9
:10071E00FF00FF00FF00FF000000F600F600F600ED
:10072E00FF00FF00FF00FF0000000000E700DB00FD
:10073E00BD007E00FF00FF00FF00FF00FF00000075
:10074E00F600F600F600FF00FF00FF00FF00FF00BE
:10075E000000E700DB00BD007E00FF00FF00FF0091
:10076E00FF00FF000000F600F600F600FF00FF009D
:10077E00FF00FF00FF000000E700DB00BD007E0071
:10078E00FF00FF00FF00FF00FF000000F600F60074
:10079E00F600FF00FF00FF00FF00FF000000E70073
:1007AE00DB00BD007E00FF00FF00FF00FF00FF002A
:1007BE000000F600F600F600FF00FF00FF00FF004D
:1007CE00FF000000E700DB00BD007E00FF00FF0021
:1007DE00FF00FF00FF000000F600F600F600F60036
:1007EE00FF00FF00FF00FF000000E700DB00BD0080
:1007FE007E00FF00FF00FF00FF00FF000000F6007C
:10080E00F600F600F600FF00FF00FF00FF000000FC
:10081E00E700DB00BD007E00FF00FF00FF00FF00D1
:10082E00FF000000F600F600F600F600FF00FF00E5
:10083E00FF00FF000000E700DB00BD007E00FF00B0
:10084E00FF00FF00FF00FF0000000000F600F600B2
:10085E00F600FF00FF00FF00FF000000E700DB00D6
:10086E00BD007E00FF00FF00FF00FF00FF00FF0045
:10087E000000F600F600F600FF00FF00FF00FF008C
:10088E000000E700DB00BD007E00FF00FF00FF0060
:10089E00FF00000103070F1F3F7FFF0001002D4ED9
:1008AE00414E00494E46000001009401AA08000086
:1008BE00F894EE27ECBBF1E0FBBFEBBFE5BF8DE09C
:1008CE00A2E0BB27ED938A95E9F780E094E0A0E6DD
:1008DE00ED930197E9F7E6EBF8E085919591009796
:1008EE0061F0A591B59105901590BF01F0010590AD
:1008FE000D920197E1F7FB01F0CFEFE5EDBFE4E0DC
:10090E00EEBFC0E6D1E00C94AD040A921A92FA92B0
:10091E006A937A938A939A93AA93BA93EA93FA93E1
:10092E00EFB7EA93E5E8EDBDEEEEECBD0E946D0586
:10093E00E991EFBFF991E991B991A99199918991B5
:10094E0079916991F99019900990189513D0ADE7A6
:10095E00B1E00E945D060E946205A8E8B3E10E9424
:10096E00B00F7894A0E1B7E20E94B00FF8940E9405
:10097E000405FFCFEFEFEABBE0E0EBBBEFEFE7BB29
:10098E00E0E0E8BBEFEFE4BBE0E0E5BBEFEFE1BB9F
:10099E00E0E0E2BBE3BFE2BFECBFEFBDE4E0EEBDE3
:1009AE00E5E8EDBDEEEEECBDE0E0E7BDE6BDEBBD8E
:1009BE00EABDE9BDE8BDE2BDE5BDE4BDE3BDE4E0F1
:1009CE00E9BFE0E0E5BFE4BFEAB9E0E8E8B9E0E09E
:1009DE00E0BFE6B9EDB9E6BFE4E5F0E0E0937D01F6
:1009EE00F0937E01E0E0F0E0E0937F01F093800170
:1009FE00E0938101F093820108952497E0E0E8836B
:100A0E00E983EA83EB830E94111200E010E020E0FC
:100A1E0030E048E050E0E0E0EE83EF83AE81BF814E
:100A2E00A639E0E0BE0784F5E0E8E2BBF801ACE3EE
:100A3E00B6E0EE0FFF1FEA0FFB1F0E94350EA3E07C
:100A4E00B0E00E94B00FE0E0E2BBF801EE0FFF1F36
:100A5E00E45BF94F0E94350E0F5F1F4F4017510791
:100A6E0011F408851985F9013196A7E0B0E00E94CE
:100A7E00BC119F01A3E0B0E00E94B00FEE81FF8198
:100A8E003196EE83FF83CACFE8EFF0E0E417F50767
:100A9E0051F448E050E0E0E0E887E98700E010E03C
:100AAE0020E030E007C0405F5F4FE885F985709623
:100ABE00E887F987B0CFE0E0EA93EA93E8E3F2E063
:100ACE00FA93EA93A0E00E949B090895ABE8B1E087
:100ADE000E943D0E0E94430EDC9749F4ADE8B1E052
:100AEE000E943D0EE0E0E0938B01E0938C010E94AA
:100AFE00480EDC9749F4AFE8B1E00E943D0EE0E00D
:100B0E00E0938D01E0938E010E944D0E1C9729F407
:100B1E00E0E0E0938F01E09390012AD10E94520E03
:100B2E00AEE10E94CB0CE3E0E0936801E4E0E093D9
:100B3E0069010E94520EA2E00E94CB0C0E94570E39
:100B4E000E945E0E0E94A80D0E94690E0E94700EF9
:100B5E000E945E0E0E941C0D0E94690E0E94770E6E
:100B6E000E947E0E0E94890E0E94A80D0E94940E75
:100B7E000E94700E0E94890E0E941C0D0E94940EFF
:100B8E000E94770E0E947E0E0E949B0E0E94A80D60
:100B9E000E94A60E0E94700E0E949B0E0E941C0DBB
:100BAE000E94A60E0E94770E0E947E0E08950000EF
:100BBE00909A0000089590989498959808951A9395
:100BCE00F6DF13B39098E12F19910895AA931A9313
:100BDE00E0E0E4BB919A9298E981EF5F1E2F10FF3F
:100BEE0002C0949A01C0949811FF02C0959A01C058
:100BFE009598E5DFE078E9F718811CC1AA93A981E1
:100C0E00E5DF0E94AD0E16C1E0919201EA93E091EC
:100C1E009101EF73E064AE2FF1DFE0919201EA9360
:100C2E00E0919301E86BAE2FE9DF0895AA93E98175
:100C3E00E0939101E295EF70E695E695E0939201CF
:100C4E00E881E0939301E0DFF5C0A0919101AF5FE1
:100C5E00A0939101A03818F0E0E0E0939101E091AB
:100C6E009101EF7331F4E0919101EA93A091930118
:100C7E00DDDF0895AA93A0919201A8DF929A0E94B7
:100C8E00AD0E21960895A0919201A0DFE0E0E4BBA5
:100C9E00919A929A94DF0895AA93E981EA93E98151
:100CAE000E94B60EF0DFB0DFEEDFC4C0BA93AA9397
:100CBE001A93889A899A8A9A8B9A939A8C9A8D9A71
:100CCE007ADF9398A4E6B0E00E94B00F939A10E0FA
:100CDE00123040F41A93AFE391DF1A931395A0EC00
:100CEE008DDFF6CFE1E0E0936001E0E0E09361019B
:100CFE00E981FA813097A9F0A981BA810E94C611C3
:100D0E00E0936401F093650112960E94C611E09380
:100D1E007901F0937A01A981BA8114960E94C611C5
:100D2E000AC0E0E0F0E0E0936401F0936501E09327
:100D3E007901F0937A01E0937B01F0937C01E1E07D
:100D4E00E0936601E09367010E94570EE1E0E093A5
:100D5E007001E1E7F1E0FA93EA93EFEFEA93A8E08E
:100D6E00B0E00E94B40D04D0E1E0188123960895FE
:100D7E000E94131200E030E0E0916101E03009F0D2
:100D8E000FEF383078F4E0E0EA93A32F3F5F4EDFA9
:100D9E0010E0A12F1F5FA03820F4A02F0E94BC0EE0
:100DAE00F8CFEFCFE0E0EA93A0E040DFE0E0EA9397
:100DBE00A0E006D30E941A1224960895AA931A93BD
:100DCE000A93AC81A03818F4AB81A03408F016C099
:100DDE00EC81EA93AC8160DF1E2F16DFEB81E770AA
:100DEE00A1E00E946F110E2FEA81E03011F0102B5E
:100DFE0003C0E02FE0951E23A12F3CDF198108814F
:100E0E0025960895AA93A981A03818F4A881A03434
:100E1E0010F0E0E00FC0E981EA93A9813DDF1E2EBC
:100E2E00E881E770A1E00E946F11E12111F0E1E08D
:100E3E0001C0E0E022960895AA931A93ED81EA93F9
:100E4E00AD812ADF1E2FE0DEE981E73011F0E830B8
:100E5E0039F4EB81EA93AA810E94CF0DEB8308C08F
:100E6E00E33021F4EB81E095EB8302C0E03021F416
:100E7E00EA81E0951E2302C0E23029F4EA81AB81BB
:100E8E00EA231E2B0EC0E13029F4EA81AB81EA235E
:100E9E001E2707C0E43029F4EA81E095AB81EA2BE6
:100EAE001E23A12F0E94BC0E188126960895AA9388
:100EBE0023970E941112A889A03848F4AF85A03458
:100ECE0030F4AE85A03019F0AD85A03009F4C8C15C
:100EDE00EE85E887A889BB27EE85F0E0AE0FBF1F31
:100EEE00A138E0E0BE0720F0A889E0E8EA1BEE8713
:100EFE002D85AF85BB27ED85F0E0AE0FBF1FA1346A
:100F0E00E0E0BE0720F0AF85E0E4EA1BED87A9859F
:100F1E00A63009F05BC0EC85E13009F4A1C1E330E5
:100F2E0039F4E0917B01F0917C01309709F498C17E
:100F3E000885ED85E695E695E6953E2FE22FE7705E
:100F4E0019F4AD852A17E9F0A02FBB27E32FF0E0A7
:100F5E000E948E11AA85BB850E94C00E26952695ED
:100F6E002695532F5F935F5FE22FAF91EA1748F0FC
:100F7E00102FE12F1150E03019F00E94C50EF9CF5D
:100F8E00F1CFAE850A1711F1EE85AA85BB85F0E08B
:100F9E000E94C00EED85E77009F03F5F20E02F93B1
:100FAE002F5FE32FAF91AE1788F41E851F931F5F3F
:100FBE00E02FAF91AE1718F40E94C50EF7CFEE8555
:100FCE00AE81BF81F0E00E94C00EE9CFEF85E770E1
:100FDE003E2FED85E03009F443C1EA85FB85EE83B3
:100FEE00FF8310E00889303009F065C0AD85A83068
:100FFE0008F45CC0E985E03011F0E33009F402C07A
:10100E00E73009F402C0E83009F402C0E63009F412
:10101E0002C0E93009F402C0EA3021F40A93E889EB
:10102E000E94B60E1F931F5FEE85AF91AE17B8F5F7
:10103E00A985A63061F427DEE7DD0E94D20EFA9371
:10104E00EA9321DEAE2F0E94160EFFDD27C0E98542
:10105E00E93011F450E00EC0EA3011F45FEF0AC02F
:10106E000E94D20E0E94DB0E5E2FE985E73011F052
:10107E00E83021F40E94E10E5E2F06C0E33011F439
:10108E00509502C0E03021F4A52F0E94BC0E06C080
:10109E000E94E50EEFEFEA93AD85CEDEC3CFEF856E
:1010AE00E85FEF87ED85E850ED87D1C05D8520E0E4
:1010BE00E0E0ED877AC0E32FAD85AE0FA93020F4C6
:1010CE002D85E0E0ED8703C0E8E0E31B2E2F3A9379
:1010DE00A22F0E94C40D4E2FE985E630F1F41F9326
:1010EE001F5FEE85AF91AE17B8F40E94EB0EAE2FD8
:1010FE00E32F0E9477110E94F20EE32FA42F0E947D
:10110E007711E095E1215E2B0E94D20EFA93EA93BD
:10111E00A52F0E94160EE3CF2CC0E93011F450E03B
:10112E0003C0EA30A9F45FEF0E94E10EAE2FE32F69
:10113E000E946F115E2F1F931F5FEE85AF91AE174A
:10114E0030F40E94E50E4A93A0E076DEF4CF11C093
:10115E001F931F5FEE85AF91AE1758F40E94FD0EE0
:10116E00AE2FE32F0E946F11EA934A93AD8564DE92
:10117E00EFCFED85E03009F473C0AD85A83028F4CB
:10118E00ED85E21B5E2FE0E003C0532FED85E850A6
:10119E00ED8710E0EF85E85FEF87E8E0E31B2E2F89
:1011AE000889EA85FB85EE83FF83E52FF0E0E056A4
:1011BE00F74F4491E985E630F1F41F931F5FEE85FA
:1011CE00AF91AE17B8F40E94EB0EAE2FE22F0E9435
:1011DE006F110E94F20EE22FA42F0E946F11E09564
:1011EE00E1215E2B0E94D20EFA93EA93A52F0E9464
:1011FE00160EE3CF2CC0E93011F450E003C0EA30F4
:10120E00A9F45FEF0E94E10EAE2FE22F0E9477113C
:10121E005E2F1F931F5FEE85AF91AE1730F40E94C5
:10122E00E50E4A93A0E008DEF4CF11C01F931F5FB6
:10123E00EE85AF91AE1758F40E94FD0EAE2FE22F41
:10124E000E947711EA934A93AD85F6DDEFCFE885DC
:10125E00AA85BB85F0E0EA0FFB1FEA87FB87B9CEB4
:10126E000E941812619608950E940A0F24F0E0E081
:10127E00F0E00C94CD0DA881B981A038E0E0BE0756
:10128E0024F0EFE7F0E00C94CD0DE881F9810C9499
:10129E00CD0D0E940A0F24F0E0E0F0E00C94CD0D8D
:1012AE00A881B981A034E0E0BE0724F0EFE3F0E0BE
:1012BE000C94CD0DE881F9810C94CD0DAA93E981A2
:1012CE00EA93E981EA93A091600178DD0C94CD0D4B
:1012DE00AA931A93AA81A03818F4A981A03438F0E1
:1012EE00E0E0F0E060E070E018810C94140EE9810B
:1012FE00E7701E2FE981E695E695E695E9831030B5
:10130E0011F0EF5FE983AA81BB2788279927E9812E
:10131E00FF27662777270E949611EC5FFF4F6F4FCE
:10132E007F4F18810C94140EAA930E941312AC8155
:10133E00A53018F5ED81FE8105910E94110F1591D2
:10134E000E94110F25910E94110F3591ED83FE839E
:10135E00E885EA93E885EA930A932A93E1E0EA9313
:10136E00EA85FB85FA93EA93AB85A1DD0A93A22F5A
:10137E00AFDF0E941A120C94A60DE0E0F0E060E0E0
:10138E0070E00E941A120C94A60DAA93EA81EA93B9
:10139E00EA81EA93E0916901AA81EA2319F0E091CA
:1013AE00600102C0E0916101AE2F08DDE881EE0F11
:1013BE00E883E03011F4E1E0E883E8810C94140E48
:1013CE00AA93A981BB2750DFE0936201A881BB27B6
:1013DE0060DFE09363010C94CD0DAA932B970E94CE
:1013EE001112AC89BB2740DFEC8BAA89BB273CDFEF
:1013FE00EA8BAB89BB274DDFEB8BA989BB2749DF76
:10140E00E98BEA89E0936201E989E0936301E1E007
:10141E00E887E989AB89EA1771F51C89AA891A1739
:10142E0031F41A93EC89EA93A1E0AFDFC8C0AA8920
:10143E001A1730F4EA89E11B0E2F41E050E006C086
:10144E00AA89E12FEA1B0E2F4FEF5FEF3B89E0E0F9
:10145E00EE830E94140F38F41A933A933395AA85AB
:10146E0094DFEF83F6CFEF81E887140FE02F015062
:10147E00E03061F7A4C0EA89AC89EA1739F53B89F7
:10148E00A9893A1730F4E989E31B2E2FE1E0F0E049
:10149E0006C0A989E32FEA1B2E2FEFEFFFEFED8792
:1014AE00FE871C89E0E0EE830E94140F30F41A933D
:1014BE0013950E941C0FEF83F7CFEF81E887ED8520
:1014CE003E0FE22F2150E03061F779C0E0E0EE836D
:1014DE000E94140F08F073C01C893B89E1E02E2F87
:1014EE000E2FAA89BB27EC89F0E0AE1BBF0BAD0116
:1014FE0055232AF40FEFFA010E946311AF01FA018E
:10150E00EE0FFF1FEF87F88BA989BB27EB89F0E061
:10151E00AE1BBF0BAD87BE87AE85AA233AF42FEF65
:10152E00ED85FE850E946311ED87FE87ED85FE85B4
:10153E00EE0FFF1FEB87FC871A933A93A1E025DF8E
:10154E00E887E0E0E987EA87AD85BE854A175B0745
:10155E00BCF0100FEB85FC850E94200FA985BA8583
:10156E004A175B072CF4320FAF85B8890E94270FFC
:10157E001A930E941C0FE887EA89E11751F718C0E9
:10158E00320FEF85F8890E94200FED85FE85A98523
:10159E00BA85EA17FB072CF4100FAB85BC850E94A9
:1015AE00270F1A930E941C0FE887E989E31741F76A
:1015BE00EB89EF5FEB8BE989EF5FE98B89CF0E94B7
:1015CE00181265960895BA93AA9323970E94111242
:1015DE00ED85E887E0916801EF83E0916001EE838D
:1015EE00AA89BB27EF850E942E0FE8890E94350F2E
:1015FE00E8890E943C0F71F0E885E078F1F4AD8542
:10160E00BE85EAE5F0E00E94440F1CF00E944D0FEB
:10161E000CF413C0332312F00E94520FAF81A2308C
:10162E0020F02230E0E03E070CF407C00E94560F77
:10163E0021F40A93A22FA15041DEE885E878E8381C
:10164E0091F0E885E078C9F4AD85BE85A25FBE4F06
:10165E000E945F0F3CF0AD85BE85A25FBE4F0E941B
:10166E00640F0CF40AC00E94690F38F00E94700FCC
:10167E0021F40A93A42FAF5F21DEAA89BB27EF8541
:10168E00F0E0AE1BBF0B8D0111230AF445C0E885B7
:10169E00E278E23891F0E885E07811F5AD85BE8507
:1016AE00A65ABF4F0E945F0F3CF0AD85BE85A65A6D
:1016BE00BF4F0E94640F0CF413C0332312F00E942C
:1016CE00520FAF81A23020F02230E0E03E070CF442
:1016DE0007C00E94560F21F40A93A22FA150EEDDEF
:1016EE00E885E478E43871F0E885E078A9F4AD8512
:1016FE00BE85EEE0F1E00E94440F1CF00E944D0FFB
:10170E000CF40AC00E94690F38F00E94700F21F489
:10171E000A93A42FAF5FD2DDAA89BB27E8890E9466
:10172E002E0FEF850E94350FEF850E943C0F81F042
:10173E00E885E078F1F4EB85FC85AD85BE85AE17C6
:10174E00BF072CF0E985FA85EA17FB070CF411C0E8
:10175E0033237AF00E94520FAF81A23050F0E02F67
:10176E00EE5F0E94790F29F4E02FEF5FEA93A22F2C
:10177E00A5DDE885E878E83871F0E885E078C1F411
:10178E00AD85BE85E8E6F1E00E94440F1CF00E9494
:10179E004D0F0CF40DC00E94690F50F0E02FEE5F5C
:1017AE000E94810F29F4E02FEF5FEA93A42F86DDCC
:1017BE00AA89BB27E889F0E0AE1BBF0B8D01112370
:1017CE000AF450C0E885E278E23871F0E885E078F6
:1017DE0009F5AD85BE85E4EBF0E00E94440F1CF0E8
:1017EE000E944D0F0CF416C03323A2F00E94520F2C
:1017FE00AF81A23020F00230E0E01E070CF40AC0E8
:10180E00E02FE2500E94790F29F4E02FE150EA9385
:10181E00A22F54DDE885E478E43891F0E885E0788D
:10182E0009F5AD85BE85AC54BF4F0E945F0F3CF0ED
:10183E00AD85BE85AC54BF4F0E94640F0CF412C030
:10184E000E94690F20F00230E0E01E070CF40AC07F
:10185E00E02FE2500E94810F29F4E02FE150EA932D
:10186E00A42F2CDD0E94181263960895AA930E944D
:10187E001312AF81BB27ED81F0E0AE1BBF0BF4DC82
:10188E001E2FAF81BB27ED81F0E0AE0FBF1FECDC4A
:10189E000E2FAE81BB27EC81F0E0AE1BBF0BF9DC47
:1018AE003E2FAE81BB27EC81F0E0AE0FBF1FF1DC07
:1018BE002E2F1A933A930A93A32F8FDD1A932A93FE
:1018CE000A93A22F8ADD0E941A1228960895AA93CF
:1018DE000E941112A985A03818F4A885A03408F02A
:1018EE004FC050916801E52F5150E03009F448C0C7
:1018FE00EF81E03009F444C0EF81E150EF83EF5FF8
:10190E000E2FF0E0A5E0B0E0AE1BBF0BFD010E9474
:10191E007F110E9484119F0110E0AE81A03459F412
:10192E000E94890F1A93A02FA1DF0E94890F0A939C
:10193E00A12F9CDF0FC00E94890F1A930A93EA858C
:10194E00F0E0FA93EA93E0E0F0E0FA93EA93A0E095
:10195E00B0E039DE1F5F33231AF4E12FF0E008C048
:10196E000150A12FBB27E02FF0E0AE1BBF0BFD01F6
:10197E00EE0FFF1F31962E0F3F1F011770F6B3CFDC
:10198E000E9418122A960895AA93EA81EA93EA8190
:10199E00EA93EA81EA93AFE89ADF0C94140E0E9460
:1019AE00DE117B816A81F981E88177FB770F67FD14
:1019BE007160972F9E5781F078F0983190F4AA2796
:1019CE00BB27882708948795B795A7959A95D1F741
:1019DE00EA23FB23682305C0E8947727EE27FF2729
:1019EE0066276F77769508F4606877F9A991B991B3
:1019FE0089919991EA17FB076807790797FB089574
:101A0E000E948E0F0E94D60C0E94D91121F40E94C2
:101A1E00CF110C94330EDEF70E94CF11A0E0B0E090
:101A2E0080E89FE30E94591017C10E94DE1124978F
:101A3E001A9310E00E94930FE3E8F9EF62E27EE35F
:101A4E000E94B0100E94980FDBDF0E94930F0E943D
:101A5E00E3110E9459100E94980FE0E0F0E060E060
:101A6E007FE30E94431109F008F409C00E949D0F04
:101A7E00A0E0B0E080E09FE30E94A20F11E00E9480
:101A8E00930FE0E0F0E060E87EE30E94431109F07E
:101A9E0008F408C00E94930FE0E0F0E060E07FE3FE
:101AAE000E94A20F103041F00E949D0F0E94BA0FAB
:101ABE00ED83FE836F8378870E949D0F0E94930FA4
:101ACE000E94B010E983FA836B837C83A1EBB4ECA4
:101ADE0086E292E40E94B010DF01CB01EDE1F5EE5B
:101AEE006DE272E40E94E3110E9459100E94A90F48
:101AFE00ACE4B3E584E091E40E9460100E94930F81
:101B0E000E94B0107F936F93FF93EF93E981FA8158
:101B1E006B817C81A1E1BDEE8EED9FE30E94601092
:101B2E000E94A90FAEE5BBE788EA9FE30E94601012
:101B3E00AF91BF918F919F910E94FE1018812996AF
:101B4E0008950E948E0FEBEDFFE069EC7FE30E949B
:101B5E005910DF01CB0169DF7FC0BA93AA93B98117
:101B6E00A881109631F0FC81EB816A816193119707
:101B7E00E9F7EB81FC8125960895AA93E881F0E0C0
:101B8E00E056F74FA491E9810E946F1122960895B5
:101B9E00AA931A93E981E73011F0EA3019F4109103
:101BAE00600109C0E93019F41091610104C0E830F8
:101BBE00A1F410917001E0916101E03049F0103014
:101BCE0019F0EFEF188129C0EA81E095188125C040
:101BDE00103019F4E0E0188120C0EA8118811DC090
:101BEE00BA93AA93EA81E13021F4E881F981E49174
:101BFE0014C0E23029F4A881B9810E94F0110DC001
:101C0E00E33041F4A881B981E0917901F0917A0134
:101C1E00099503C0A881B981EC9123960895AA93E2
:101C2E00EB81E03029F4E881A981BA81EC9314C0EC
:101C3E00E23031F4E881A981BA810E94FC110CC016
:101C4E00E33051F4E981FA81FA93EA93AA81E091A3
:101C5E007B01F0917C01099524960895049008BAB1
:101C6E00E22FA1E00E946F11EBBB0895ED91FD9163
:101C7E003196FE93EE930895A0918B01B0918C0155
:101C8E000895A0918D01B0918E010895A0918F01BC
:101C9E00B09190010895EFE3EA93EFE1EA9308958E
:101CAE00E1E0E0936801EFEFE09369010895E4DF6E
:101CBE00E6E00E94B611662777270E942610DF0104
:101CCE00CB010895A0E0B0E088EC91E40E94B01042
:101CDE000895A3E8B1E00E94ED0F0E94CA11089585
:101CEE00A7E8B1E00E94ED0F0E94CA11D4CFE09197
:101CFE008301E15CEA93A0918701EFE1EA1BAE2F2D
:101D0E000C94F409BEDFE6E00E94B6116627772731
:101D1E000E942610DF01CB010895A0E0B0E080EA1A
:101D2E0091E40E94B0100895B1DFE6E00E94B61172
:101D3E00662777270E942610DF01CB010895A0E0C9
:101D4E00B0E080E791E40E94B01008959198EFEF13
:101D5E00E4BBE881E5BB0E94DE050C94E205E69546
:101D6E00E695E695AE2F0C941D060E9441060C9446
:101D7E002C06EA0FFB1FEE83FF830895EC85EA9392
:101D8E00EF81F8853196EF83F8873197FA93EA93CE
:101D9E00A0E00C94160EEC85EA93EF81F88531964F
:101DAE00EF83F8873197089566277727DF01CB01F8
:101DBE000C94F70D5A93AA850C94CF0D0A930395A4
:101DCE00E889EA935A9308950A930395A8890E9485
:101DDE005306E42308955E2FEC85EA93AF81B88510
:101DEE00882799270E94F70D1E2E08950A930395B2
:101DFE00E889EA93EE85EA93E985FA853196E987D3
:101E0E00FA873197D1CFBA93AA93A881B9810E944C
:101E1E000D120895ED83FE830895AE81AF5FAE83FC
:101E2E00A150E0916801AE1708953A93AA850C94DB
:101E3E00CC09A985BA85EA0FFB1FE987FA870895B1
:101E4E00E985FA85EA1BFB0BE987FA870895F0E02E
:101E5E00EA0FFB1F8F01A989BB270895F0E0AE1B87
:101E6E00BF0B9D01A989BB270895F0E0EA0FFB1F68
:101E7E00AF01E885E178E1380895EA1BFB0B0F010D
:101E8E00DF01EB85FC85AE17BF070895E985FA855E
:101E9E00E015F10508950A93A22F0C9465090A9393
:101EAE00A22FA2500E940907AE2FEE81EA170895C5
:101EBE00EB85FC85AE17BF070895E985FA85EA170D
:101ECE00FB0708950A93A42F0E946509AF81A230E3
:101EDE0008950A93A42FAE5F0E940907AE2FEE81DC
:101EEE00EA170895EA93A22F0E940907AE2FEE81FA
:101EFE00EA170895EA93A42F0E940907AE2FEE81E8
:101F0E00EA170895E985EA93E985EA9308950E9410
:101F1E00DE110E94D4110895AD81BE818F81988506
:101F2E000895ED83FE836F837887F6CFED81FE8172
:101F3E006F81788508950E945910ED83FE836F831B
:101F4E0078870895A981BA818B819C810E94B010F7
:101F5E000895109639F080ED97E00197F1F7A89566
:101F6E001197C9F7089530976040704009F0705886
:101F7E000895552342F4503811F4E0FF04C0319611
:101F8E00691F791F6BF050E8572711F45F93CFC08C
:101F9E005F3F31F0660F000C57956795752F0895CA
:101FAE005F9300200AF0CFC0C8C050E8192E15224A
:101FBE00880F991F9527550F879550E8072E0522F4
:101FCE00660F771F7527550F67950895689401C0A2
:101FDE00E8945F93F2DF703818F07F3F08F4A7C0E3
:101FEE0056E1571BAAF4519558300EF4593030F083
:101FFE00EFEFFFEF6FEF7FE777F91AC077275523E3
:10200E00B9F0EE0FFF1F661F771F5A95D1F710C05C
:10201E007727583028F0EF2FF62F672F5850F9CF2B
:10202E00552331F076956795F795E7955A95D1F743
:10203E0000200AF445D15F910895689401C0E89498
:10204E00309760407040B1F0002426F0772312F4F0
:10205E00009436D1172E7EE1112032F07A95EE0FD4
:10206E00FF1F661F111CF9CFEF2FF62F612D5F9307
:10207E008ADF5F9108954F93AF01FD01DA01AB0145
:10208E00BC01CA01402D012C142E4F910895EA0F68
:10209E00FB1F681F0895E095F0956095EF5FFF4F69
:1020AE006F4F08955F9381DF903871F150E81526D8
:1020BE0004C05F937ADF903839F1703821F1572FD1
:1020CE00591B2BF112F4D7DFFACF583118F0AA278B
:1020DE00BB278827583028F0AB2FB82F88275850A9
:1020EE00F9CF552329F08695B795A7955A95D9F727
:1020FE00502D512572F0CBDF38F46795F795E795A3
:10210E00739513F420C0B7DF3EDF5F910895D8F7C3
:10211E00FBCFEA1BFB0B680B51F010F40094BBDFF6
:10212E00662392F3EE0FFF1F661F7A95CBF7EE270D
:10213E00FF27662777275F910895EFEFFFEF6FE791
:10214E007FEF5F910895EFEFFFEF6FE77FE75F910E
:10215E0008955F932ADF703851F3903841F30124CC
:10216E000894791F23F41CF300203AF3ECCF0F925E
:10217E001F932F933F934F93112722279927689FE1
:10218E00A0018F9F302D410D591F6B9F300D411DAA
:10219E00591F8E9F27D0BF9F25D06A9F23D0BE9FE9
:1021AE001DD0AF9F1BD0AE9F110D291F391F491F88
:1021BE00591FE32FF42F652F522F4F913F912F91DF
:1021CE001F910F9066232AF0550FEE1FFF1F661FFB
:1021DE0002C073954BF2CDDE5F910895100D211D57
:1021EE00391F02C0200D311D491F591F08955F93DD
:1021FE00DCDE703821F411200AF49FCFA4CF903882
:10220E0009F495CF01240894970B1BF4D4F3002006
:10221E00F3CF792F1F932F933F934F9311241127B1
:10222E00222733274427552790E2AE17BF0786078C
:10223E00410730F0AE1BBF0B860B410B089401C05B
:10224E008894551F221F331F111CAA1FBB1F881FE6
:10225E00441F9A9551F7F901612D4F913F912F919E
:10226E001F91662332F0550FEE1FFF1F661F7A95E2
:10227E0043F27FDE5F91089599239AF0772342F01F
:10228E00971748F029F4AE17BF07860720F031F0F4
:10229E00989488940895989408940895189488941E
:1022AE0008957723C2F7971798F3A9F7EA17FB0754
:1022BE00680788F399F3ECCFF195E195F040089516
:1022CE00F09560957095E195FF4F6F4F7F4F089594
:1022DE00EE230E2EEA2F19F0EE0F0A94E9F7089569
:1022EE00EE230E2EEA2F19F0E6950A94E9F70895DB
:1022FE00EE0FFF1FEE0FFF1F0895F595E795F5956D
:10230E00E79508956F2F660F660B762F0895FA9F47
:10231E00F02DEB9FF00DEA9FE02DF10D08957A9FC1
:10232E00702D6B9F700DF89F700DE99F700D6A9F59
:10233E00602D710DFB9F600D711DE89F600D711D6D
:10234E008827FA9FF02D610D781FEB9FF00D611D10
:10235E00781FEA9FE02DF10D681F781F08956E2FEC
:10236E006A9FF0016B9FF00D0895E894F7FF02C08D
:10237E00A3DF6894EA23FB230EF49EDF0895ED910C
:10238E00FC9111970895ED93FD936D937C930895B1
:10239E00E881F9816A817B810895A881B9818A815A
:1023AE009B810895E883F9836A837B8308959A93CA
:1023BE008A93BA93AA930895182E862F612D192EFB
:1023CE00972F712D1B2EBF2FF12D1A2EAE2FE12D13
:1023DE000895E199FECFFF93FFB7F894AEBBBFBB54
:1023EE00E09AEDB3FFBFFF910895E19B02C0A8955F
:1023FE00FCCF9FB7F894AEBBBFBBE09A8DB3E81786
:10240E0019F0EDBBE29AE19A9FBF089500240A16D7
:10241E000B0608955A934A933A932A931A930A9362
:10242E0008955D814C813B812A811981088108952F
:00000001FF
