:0C0000000C9475000C9400000C9400009F
:10000C000C9400000C9400000C9400000C94000064
:10001C000C9400000C9400000C9400000C94000054
:10002C000C94A2000C9400000C94C1000C940000E1
:10003C000C9400000C9400000C9400000C94000034
:10004C000C9400000C9400001027E80364000A00D4
:10005C000100001000011000010000000000000071
:10006C000000000000000000000000000000000084
:10007C000000000000000000000000000000000074
:10008C000000000000000000000000000000000064
:10009C000000000000000000000000000000000054
:1000AC000000000000000000000000000000000044
:1000BC000000000000000000000000000000000034
:1000CC00000000000000000080C00100020066007B
:1000DC0008000400680002007001D4000000F894CD
:1000EC00EE27ECBBF1E0FBBFEBBFE5BF8DE0A2E080
:1000FC00BB27ED938A95E9F780E094E0A0E6ED93B9
:10010C000197E9F7E6EDF0E085919591009761F0A4
:10011C00A591B59105901590BF01F00105900D9238
:10012C000197E1F7FB01F0CFEFE5EDBFE4E0EEBFA7
:10013C00C0E6D1E00C94D800EA93FA93EFB7EA93B7
:10014C001A930A931BB10CB1E12FEC7189F4E42DD5
:10015C004394F0E0E05AFE4F0083E8E0E41509F424
:10016C0044246394E8E0E61519F46624689420F8B6
:10017C000991199112C0EA93FA93EFB7EA93BB2055
:10018C0061F0BA94E82D8394F0E0E859FE4FE081D9
:10019C00ECB9E8E0E81509F48824E991EFBFF9918E
:1001AC00E9911895E0E0EABBEBBBE7BBE8BBEFEFEE
:1001BC00E4BBE0E0E5BBE1BBE2BBE3BFE2BFECBF0D
:1001CC00EFBDEEBDEDBDECBDE7BDE6BDEBBDEABDE3
:1001DC00E9BDE8BDE2BDE5BDE4BDE3BDE9BFE5BFFA
:1001EC00E4BFEBB9E6E8E0BDE0E0E0BDE3E3E9B98C
:1001FC00E0E8E8B9E0E0E0BFE6B9EDB9E6BFA0E1C0
:10020C00F4D07894E0E8F5E2FA93EA93E1E0F0E0D8
:10021C00FA93EA93A1E0B0E003D089D0FECFFFCFF0
:10022C00BA93AA930E94D902EA85FB85EE0FFF1FB1
:10023C000E947102A0E4B2E48FE090E00E94B3024D
:10024C0031978F01D801E0E0F1E00E9489029F0113
:10025C00B22FA0E0F801EA1BFB0BAF01A885B98512
:10026C00109721F4AE81BF81109709F002C0E0E035
:10027C0057C0A885B985119721F4AE81BF8110971D
:10028C0009F002C0E8E04CC0A885B985129721F4AA
:10029C00AE81BF81109709F002C0E8E441C0A88587
:1002AC00B985109721F4AE81BF81119709F002C076
:1002BC00E0E136C0A885B985119721F4AE81BF81E4
:1002CC00119709F002C0E8E12BC0A885B9851297F7
:1002DC0021F4AE81BF81119709F002C0E8E520C07E
:1002EC00A885B985109721F4AE81BF81129709F0CA
:1002FC0002C0E0E915C0A885B985119721F4AE813B
:10030C00BF81129709F002C0E8E90AC0A885B98537
:10031C00129721F4AE81BF81129709F002C0E8ED6B
:10032C00EAB920BD49B90E94E0022C960895EF97D6
:10033C00A59784E6A0E0B0E0E0E7F0E00E94E702D9
:10034C000E94DB0210E020E030E00E944702E8E26D
:10035C00EC832F5F3F4F1D3059F0F901DE011496ED
:10036C00EA0FFB1F10830E9447022F5F3F4FF3CF12
:10037C00DE011496A20FB31FE9E2EC93DE01149692
:10038C000E9434020E94E202EF96A9960895AA9365
:10039C00E5B3EF70AE2FE881E07FEA2BE5BB8DE093
:1003AC008A95F1F7AA9A8DE08A95F1F7AA988DE0D3
:1003BC008A95F1F70C943202AA93A881E8DFE881C0
:1003CC00E295E883A881E3DF85E88A95F1F70C9440
:1003DC003202A2E00E944D02ACE0EEDFA1E00E94EE
:1003EC004D02E0E0DE2EAE2E0895AA93E4B3E06F4A
:1003FC00E4BBA29AA09AA19AAA98A898A998C88096
:10040C00E881E058E0937201E881E054E0937301D5
:10041C00A4E1B0E00E945B020E9453020E945302CE
:10042C000E945302A0E2B3DF88EC90E00197F1F751
:10043C00A8E2C2DFA4E0C0DFA5E8BEDFA6E0BCDF17
:10044C00C8DF0C9432025F9BFECFECB10895AA93E7
:10045C005D9BFECFE881ECB921960895BA93AA93DF
:10046C001A93A981BA81ED91A983BA831E2FE0302A
:10047C0019F0A12FECDFF5CFAAE0E9DF1881239664
:10048C0008950E9429021E2FA12F0C942D020E9468
:10049C00E201A3E0B0E00C945B02A0E30E94CD016A
:1004AC0088EC90E00197F1F70895109639F080ED03
:1004BC0097E00197F1F7A8951197C9F70895F19571
:1004CC00E195F0400895F09560957095E195FF4F9A
:1004DC006F4F7F4F08956F2F660F660B762F089521
:1004EC000024112490E1AA0FBB1F001C111C0E1A32
:1004FC001F0A18F40E0E1F1E01C0A1609A9599F7E1
:10050C00FD01D00108952ED0EBDF0EF4D8DF089555
:10051C003F934F935F93002411244427552730E2D7
:10052C00AA0FBB1F881F991F001C111C441F551FAD
:10053C000E1A1F0A460B570B28F40E0E1F1E461FD1
:10054C00571F01C0A1603A9559F7FD01BC01D001BC
:10055C00CA015F914F913F91089512D0D9DF0EF4EB
:10056C00B2DF0895E894F7FF02C0A9DF6894B7FFE3
:10057C0006C0A095B095119600F8039400FA089562
:10058C00E89477FF02C09FDF689497FF0BC00024AC
:10059C00A095B095809590951196801D901D00F8B2
:1005AC00039400FA08955A934A933A932A931A9310
:1005BC000A9308955D814C813B812A8119810881C0
:1005CC000895AC0FBD1F05900D928A95E1F7089523
:00000001FF
