:060000000C9469010C9450
:1000060000000C9400000C9400000C9400000C946A
:1000160000000C9400000C9400000C9400000C945A
:1000260000000C9400000C9400000C9400000C944A
:1000360000000C9400000C9400000C9400000C943A
:1000460000000C9400000C9400000C940000FF00CB
:10005600FF00FF000000F600F600F600FF00FF00BC
:10006600FF00FF000000E700DB00BD007E00FF0090
:10007600FF00FF00FF00FF00FF000000F600F60093
:10008600F600FF00FF00FF00FF000000E700DB00B6
:10009600BD007E00FF00FF00FF00FF00FF00FF0025
:1000A6000000F600F600F600FF00FF00FF00FF006C
:1000B6000000E700DB00BD007E007E00FF00FF00C1
:1000C600FF00FF00FF000000F600F600F600FF004C
:1000D600FF00FF00FF000000E700DB00BD00BD00E1
:1000E6007E00FF00FF00FF00FF00FF000000F6009B
:1000F600F600F600FF00FF00FF00FF000000E7002B
:10010600DB00DB00BD007E00FF00FF00FF00FF00FC
:10011600FF000000F600F600F600FF00FF00FF00FB
:10012600FF000000E700E700DB00BD007E00FF00E7
:10013600FF00FF00FF00FF000000F600F600F600DB
:10014600FF00FF00FF00FF0000000000E700DB00EB
:10015600BD007E00FF00FF00FF00FF00FF00000063
:10016600F600F600F600FF00FF00FF00FF00FF00AC
:100176000000E700DB00BD007E00FF00FF00FF007F
:10018600FF00FF000000F600F600F600FF00FF008B
:10019600FF00FF00FF000000E700DB00BD007E005F
:1001A600FF00FF00FF00FF00FF000000F600F60062
:1001B600F600FF00FF00FF00FF00FF000000E70061
:1001C600DB00BD007E00FF00FF00FF00FF00FF0018
:1001D6000000F600F600F600FF00FF00FF00FF003B
:1001E600FF000000E700DB00BD007E00FF00FF000F
:1001F600FF00FF00FF000000F600F600F600F60024
:10020600FF00FF00FF00FF000000E700DB00BD006D
:100216007E00FF00FF00FF00FF00FF000000F60069
:10022600F600F600F600FF00FF00FF00FF000000EA
:10023600E700DB00BD007E00FF00FF00FF00FF00BF
:10024600FF000000F600F600F600F600FF00FF00D3
:10025600FF00FF000000E700DB00BD007E00FF009E
:10026600FF00FF00FF00FF0000000000F600F600A0
:10027600F600FF00FF00FF00FF000000E700DB00C4
:10028600BD007E00FF00FF00FF00FF00FF00FF0033
:100296000000F600F600F600FF00FF00FF00FF007A
:1002A6000000E700DB00BD007E00FF00FF00FF004E
:1002B600FF0001002D4E414E00494E4600006302EC
:1002C600600154000100C403B8020000F894EE2750
:1002D600ECBBF1E0FBBFEBBFE5BF8DE0A2E0BB27C7
:1002E600ED938A95E9F780E094E0A0E6ED93019717
:1002F600E9F7E4ECF2E085919591009761F0A5911C
:10030600B59105901590BF01F00105900D920197EA
:10031600E1F7FB01F0CFEFE5EDBFE4E0EEBFC0E6AD
:10032600D1E00C941D022897E0E0E883E983EA8394
:10033600EB83E8E0EC83E0E0ED83EE83EF830E945D
:100346003D0240E050E0E0E0EE83EF83AE81BF8106
:10035600A639E0E0BE070CF050C0E0E8E2BBFA01C7
:10036600A0E6B1E0EE0FFF1FAE0FBF1F0E941F02F7
:1003760000E010E00436E0E01E0764F420E030E020
:100386002A30E0E03E071CF42F5F3F4FF9CF0F5FA6
:100396001F4FF0CFE0E0E2BBDA01AA0FBB1FA05966
:1003A600BE4F0E941F024F5F5F4FEA85FB85E41731
:1003B600F50711F448855985EC85FD853196A7E04A
:1003C600B0E00E943302EC87FD8700E010E00436BF
:1003D600E0E01E0764F420E030E02A30E0E03E076B
:1003E6001CF42F5F3F4FF9CF0F5F1F4FF0CFEE8109
:1003F600FF813196EE83FF83A9CFAA85BB85A83FEF
:10040600E0E0BE0761F4E8E0F0E0EA87FB87E0E0C1
:10041600E887E98740E050E0EC87ED870AC0EA8587
:10042600FB857096EA87FB87E885F9857096E887ED
:10043600F98789CF78DFFFCFEC91E8BBEC85A1E0A7
:100446000E942B02EBBB0895F195E195F0400895CB
:10045600EE230E2EEA2F19F0EE0F0A94E9F708950F
:10046600E894F7FF02C0F0DF6894EA23FB230EF45A
:10047600EBDF08955A934A933A932A931A930A9371
:1004860008955D814C813B812A81198108810895F7
:00000001FF
