:0C0000000C9480000C9400000C94000094
:10000C000C9400000C9400000C9400000C94000064
:10001C000C9400000C9400000C94C8000C9400008C
:10002C000C9400000C9400000C9400000C940B0138
:10003C000C9400000C9400000C9400000C94000034
:10004C000C9400000C9400001027E80364000A00D4
:10005C000100001000011000010051322073746186
:10006C00727465642100414443282564293A202593
:10007C00646D7600202020202020202020202020AD
:10008C002020202020202020202020202020202064
:10009C000000513120737461727465642100414415
:1000AC0043282564293A202564206D7600202020E1
:1000BC002020202020202020202020202020000074
:1000CC0080C001002D4E414E00494E4600000C00F0
:1000DC00600166001D006C0180000C0089019E000F
:1000EC0012009501B9000200EA01CC000100EE01FA
:1000FC00CE000000F894EE27ECBBF1E0FBBFEBBFA9
:10010C00E5BF8DE0A2E0BB27ED938A95E9F780E08F
:10011C0094E0A0E6ED930197E9F7EAEDF0E0859124
:10012C009591009761F0A591B59105901590BF013F
:10013C00F00105900D920197E1F7FB01F0CFEFE58F
:10014C00EDBFE4E0EEBFC0E6D1E00C94FA01AA9357
:10015C001A930A9300E010E0EA81E064E7B900E04A
:10016C0010E0083EE3E01E071CF40F5F1F4FF9CFB1
:10017C00369A349BFECF349AE4B1F5B119810881DB
:10018C000C9415030E944E05A0E00E945C05AAE5A4
:10019C00B0E080E090E00E946905E0E0F4E060E00F
:1001AC0070E00E945008EB5FFF4F6F4F7F4FA5ED43
:1001BC00B1E00E946E05E091D501F091D6016091FD
:1001CC00D7017091D801A3E3B3E383E290E40E94DA
:1001DC003E07A0E0B0E080E09FE30E94EE06E093D3
:1001EC00D101F093D2016093D3017093D401A0910B
:1001FC00D101B091D2018091D3019091D4010E9490
:10020C0076030E947B06ECBFE1C00E944E05289746
:10021C00E0E0E883E983EA83EB830E9473050E94A4
:10022C007A05E0E0E093BB01E093BC01E093BD01F3
:10023C00E093BE010E9483050E948C050E94E5029A
:10024C00E091E901A7EAB1E0F0E0EE0FFF1FAE0F7D
:10025C00BF1FE4B1F5B1ED93FC93A091E901AF5F41
:10026C00A093E901A83018F0E0E0E093E901E091F7
:10027C00E901E05CE7B900E010E0083EE3E01E07AE
:10028C001CF40F5F1F4FF9CF0E949605A7EAB1E04F
:10029C000E949B0566277727E093B701F093B8017E
:1002AC006093B9017093BA010E947A05E093BB0187
:1002BC00F093BC016093BD017093BE010E94A20536
:1002CC00E4E6F0E060E070E00E945008A5ECB1E0DC
:1002DC000E946E050E94A8050E94EE06E887F98729
:1002EC006A877B870E94A8050E9493080E94E706F4
:1002FC00EC83FD836E837F830E94B405A885B9854A
:10030C008A859B850E94B80560F00E94B405AC817B
:10031C00BD818E819F810E94B80511F008F001C04B
:10032C0047C00E94E5020E949605A9EDB1E0EE0FD0
:10033C00FF1FEA0FFB1FA091BB01B091BC01A08372
:10034C00B183E0E0EA93A0E00E94D802A0E6B1E01D
:10035C000E9406030E94A205EFEFF3E060E070E05C
:10036C000E945008A8EEB3E080E090E00E942608BE
:10037C00A1ECB1E00E946E050E94BF050E94C80569
:10038C00E2E7F0E00E94D505ACE6B1E00E94E8059A
:10039C000031E7E21E0764F40F5F1F4F20E030E0EE
:1003AC002A35E0E03E071CF42F5F3F4FF9CFF0CF2A
:1003BC000E94F305A091BF01B091C001189714F0F1
:1003CC000E94FB05369A0E94A9082C96E991EFBF72
:1003DC00F991E991B991A991999189917991699141
:1003EC00F9901990099018950BD01FD036D00E9417
:1003FC00B6020E94440237D00E94B202FFCFFFCF58
:10040C00EFEFEABBE0E0EBBBE8E0E7BBE0E0E8BB2A
:10041C00E4BBEFEFE5BBE0E0E1BBE2BBE5BFE4BF73
:10042C00EAB9A0E10E9417030895E5E6E3BFE0E016
:10043C00E2BFE0E8ECBFE0E0EFBDEEBDEDBDECBD32
:10044C00E7BDE6BDEBBDEABDE9BDE8BDE2BDE5BD7E
:10045C00E4BDE3BDE1E0E9BF0895E0E8E8B9E0E41C
:10046C00E7B9E3EA05C0E0E8E8B9E0E4E7B9EBEEA8
:10047C00E6B9E0E0E0BFEDB9E6BF08950E94730570
:10048C00E0E0E093B701E093B801E093B901E093A9
:10049C00BA010E94FB050E948C05E0E0E093C501C7
:1004AC00E093C601E093C701E093C80188D0A9E8A6
:1004BC00B1E0A6D00E94FB05A091BF01B091C00194
:1004CC0018970CF045C0A091BF010E945C05A5E0F7
:1004DC00B0E080E090E00E942608A5ECB1E00E941C
:1004EC006E05A091C501B091C6018091C701909194
:1004FC00C801E0E0F0EC6FE774E40E948C070E9406
:10050C000106E0E0F0E06AE774E40E943E070E9416
:10051C0001060E94C805EAEAF0E00E94D505A5E9AB
:10052C00B1E00E94E80500E010E00031E7E21E07B0
:10053C0064F40F5F1F4F20E030E02A35E0E03E0707
:10054C001CF42F5F3F4FF9CFF0CF0E94F305B4CFCF
:10055C000E94A9080C948B030E94FB0578940895C3
:10056C0078940895AA93E5B3EF70AE2FE881E07FFD
:10057C00EA2BE5BB8DE08A95F1F7AA9A8DE08A9576
:10058C00F1F7AA988DE08A95F1F777C0AA93A88124
:10059C00E9DFE881E295E883A881E4DF85E88A95C4
:1005AC00F1F76BC0AA93E881F0E0E651FE4FE081D1
:1005BC00A981AE0FEBDF5980488022960895A2E006
:1005CC000E940A06ACE0E2DFA1E00E940A06E0E02D
:1005DC004E2E5E2E0895AA93A881AA3011F05714BE
:1005EC0048F0E0E0EA934394A42DDCDFA881AA3024
:1005FC0009F443C05394A89AA881C8DFA8983DC0B9
:10060C00BA93AA931A93A981BA81ED91A983BA835B
:10061C001E2FE03019F0A12FDEDFF5CF18812396C5
:10062C000895AA93E4B3E06FE4BBA29AA09AA19AAE
:10063C00AA98A898A9987880E881E058E093EC01F2
:10064C00E881E054E093ED01A4E1B0E00E9444069F
:10065C000E9410060E9410060E941006A0E282DF83
:10066C0088EC90E00197F1F7A8E290DFA4E08EDF30
:10067C00A5E88CDFA6E08ADFA2DF219608950E9410
:10068C0089087B816A81F981E88177FB770F67FDA7
:10069C007160972F9E5781F078F0983190F4AA27CB
:1006AC00BB27882708948795B795A7959A95D1F776
:1006BC00EA23FB23682305C0E8947727EE27FF275E
:1006CC0066276F77769508F4606877F9A991B991E8
:1006DC0089919991EA17FB076807790797FB0895A9
:1006EC000E9489080E947A080E9445030E947F0894
:1006FC0019F40E94750809C0E6F70E947508A0E07D
:10070C00B0E080E89FE30E94E70624960895BA9330
:10071C00AA931A930A93AA81BB8112960E94680825
:10072C00309759F1AA81BB8114960E9468088F01F9
:10073C00309761F00230E0E01E0798F0F801319735
:10074C008F01AA81BB811496ED93FC93AA81BB8186
:10075C001296ED91FD913196FE93EE933197AC810B
:10076C00A083AA81BB810E946808FF232AF0ED9127
:10077C00FD913196FE93EE9306C0AA81BB81EFEFFB
:10078C00FFEFED93FC931981088125960895BA9398
:10079C00AA9326970E94A00810E0AC85BD85E0E0E6
:1007AC00F0E0ED93FC93EA89FB893196EA8BFB8BA5
:1007BC003197E4912E2FE03009F415C1E12FE03090
:1007CC0039F4253211F411E002C00E9418060AC156
:1007DC00E130A9F4253219F40E94180602C112E086
:1007EC0040E000E02D3211F401E0FCC02B3211F49A
:1007FC004BE2F8C0203211F440E2F4C002C0E23007
:10080C0039F450E013E0203311F40068EBC003C05E
:10081C00E33009F0E7C0203310F02A3308F007C0AA
:10082C00AAE05A9F502DE22FE0535E0FDBC0E22F5F
:10083C00E33649F40E941F06E889F989A481AA933A
:10084C000E942506CEC0E33741F40E941F060E9489
:10085C002B060E9435051E2F0AC0E03761F40E945A
:10086C001F060E942B060E9441051E2F0860026085
:10087C000F7730E034C0E43611F0E93611F404603F
:10088C0002C0E53731F4E4E5F0E0EE83FF8315E0D8
:10089C000CC0E83511F4086003C0E83709F0A1C0BA
:1008AC00EEE5F0E0EE83FF8314E002FF14C00E943B
:1008BC001F060E943506AB85AA233AF4EA85FB8510
:1008CC000E94F507EA87FB874DE2403011F01F5F6D
:1008DC0001C00B7F04C00E941F060E94350600FD5C
:1008EC0011C0151778F407FF08C002FF04C00B7F76
:1008FC00242F115001C020E301C020E20E941806F1
:10090C005150EFCF312F01FF17C03030A1F003FF52
:10091C0006C0EE81FF812591EE83FF8305C0AE8179
:10092C00BF812D91AE83BF830E941806503009F011
:10093C0051503150EACF4BC020E3EE81FF810E9431
:10094C007108E887F987EE81FF813296EE83FF8389
:10095C00E885F985AA85BB85AE17BF0750F02F5FD8
:10096C00A885B985EA85FB85EA1BFB0BEA87FB8723
:10097C00EFCF2A3328F003FF02C0295F01C0295DA5
:10098C0004FD1AC0213320F4A885B985119709F408
:10099C0009C0531710F000FF01C013C020E207FF7D
:1009AC000BC020E3006102FF07C00B7F4A930E943B
:1009BC002506503009F051500E941806503009F0AD
:1009CC0051503150A885B985129708F0B5CF00FF6A
:1009DC0008C0503031F05150E0E2EA930E942506F5
:1009EC00F8CF10E0E0CEAC85BD850E9468080E946F
:1009FC00A70864960895FF92F82E26970E94A208E5
:100A0C000E943D06309719F4EFEFFFEF23C0DE0193
:100A1C0016960E94F1078D010E943D06EE83FF831E
:100A2C00E0E0E887E987DE011A960E94F1070E9450
:100A3C006808FA93EA931A930A93EDE8F3E0FA93B1
:100A4C00EA93DE011A96A3DE9F01AE81BF81E0E03E
:100A5C00EC93F9010E94A9082A96FF900895BA9385
:100A6C00AA93A991B991EE27FF276D91662311F0F6
:100A7C003196FBCF0895BA93AA93AA27BB27E99185
:100A8C00F9910590002011F01196FBCFFD0108950E
:100A9C000A921A92FA926A937A938A939A93AA93E5
:100AAC00BA93EA93FA93EFB7EA9308950E94AD00D4
:100ABC0066277727E093B701F093B8016093B901EB
:100ACC007093BA0108950E942608DF01CB010895A6
:100ADC000E94B4060E946C0808950E94A20800E0CF
:100AEC0010E020E030E00895E091B701F091B801FA
:100AFC006091B9017091BA010895E091C501F0912E
:100B0C00C6016091C7017091C8010895E0E0E093BF
:100B1C00C101E093C201E093C301E093C4010895C5
:100B2C00E091BF01F091C0010895EE0FFF1FAE0FD1
:100B3C00BF1F0E9468080895D7DFA5E0B0E080E0F1
:100B4C0090E0C1CFDADFA091B701B091B8018091EC
:100B5C00B9019091BA010E9490080895E1DFA9EDC6
:100B6C00B1E0E3CF662777270E94B4060E94D10735
:100B7C000895A091C101B091C2018091C3019091DF
:100B8C00C40108950E947603A7EBB1E00E947D0694
:100B9C000E946C08E9ECF1E0FA93EA930895FA9359
:100BAC00EA93BEDF0E9401080E9484089DDF0E9428
:100BBC00840888E00E9401052C96E0E0EA93A1E00D
:100BCC000C94D8020E940603E0E0EA93A1E00E9494
:100BDC00D802A9ECB1E00C940603AFEBB1E0ED91B7
:100BEC00FD913196FE93EE930895E0E0E093BF0102
:100BFC00E093C0010895E093C101F093C2016093AA
:100C0C00C3017093C401B5CF0E94CC02A3E0B0E045
:100C1C000C944406A0E30E94B80288EC90E0019783
:100C2C00F1F708952A93AD85BE85EF85F88909956E
:100C3C000895E889F9893497E88BF98B0895AD8587
:100C4C00BE85EF85F88909950895A889B989149608
:100C5C000E946808EE83FF83AE81BF810895A88946
:100C6C00B98914960E946808EA87FB870895DE010B
:100C7C001C960E94F1070E9468080895109639F09E
:100C8C0080ED97E00197F1F7A8951197C9F70895B2
:100C9C00552342F4503811F4E0FF04C03196691F1B
:100CAC00791F6BF050E8572711F45F93CFC05F3F6B
:100CBC0031F0660F000C57956795752F08955F936B
:100CCC0000200AF0CFC0C8C050E8192E1522880F9A
:100CDC00991F9527550F879550E8072E0522660F0B
:100CEC00771F7527550F67950895689401C0E89490
:100CFC005F93F2DF703818F07F3F08F4A7C056E11D
:100D0C00571BAAF4519558300EF4593030F0EFEFD0
:100D1C00FFEF6FEF7FE777F91AC077275523B9F00C
:100D2C00EE0FFF1F661F771F5A95D1F710C077275C
:100D3C00583028F0EF2FF62F672F5850F9CF552346
:100D4C0031F076956795F795E7955A95D1F7002090
:100D5C000AF449D15F910895689401C0E8943097E2
:100D6C0060407040B1F0002426F0772312F4009418
:100D7C003AD1172E7EE1112032F07A95EE0FFF1F3B
:100D8C00661F111CF9CFEF2FF62F612D5F938ADFB1
:100D9C005F9108954F93AF01FD01DA01AB01BC01E6
:100DAC00CA01402D012C142E4F910895EA0FFB1F00
:100DBC00681F0895E095F0956095EF5FFF4F6F4FBA
:100DCC0008955F9381DF903871F150E8152604C0C7
:100DDC005F937ADF903839F1703821F1572F591B16
:100DEC002BF112F4D7DFFACF583118F0AA27BB2712
:100DFC008827583028F0AB2FB82F88275850F9CFB8
:100E0C00552329F08695B795A7955A95D9F7502D66
:100E1C00512572F0CBDF38F46795F795E79573950C
:100E2C0013F420C0B7DF3EDF5F910895D8F7FBCFF6
:100E3C00EA1BFB0B680B51F010F40094BBDF66232C
:100E4C0092F3EE0FFF1F661F7A95CBF7EE27FF2765
:100E5C00662777275F910895EFEFFFEF6FE77FEF3E
:100E6C005F910895EFEFFFEF6FE77FE75F910895D4
:100E7C005F932ADF703851F3903841F301240894C2
:100E8C00791F23F41CF300203AF3ECCF0F921F933D
:100E9C002F933F934F93112722279927689FA001E7
:100EAC008F9F302D410D591F6B9F300D411D591FC8
:100EBC008E9F27D0BF9F25D06A9F23D0BE9F1DD069
:100ECC00AF9F1BD0AE9F110D291F391F491F591FF2
:100EDC00E32FF42F652F522F4F913F912F911F919C
:100EEC000F9066232AF0550FEE1FFF1F661F02C0DE
:100EFC0073954BF2CDDE5F910895100D211D391FB6
:100F0C0002C0200D311D491F591F08955F93DCDE6F
:100F1C00703821F411200AF49FCFA4CF903809F433
:100F2C0095CF01240894970B1BF4D4F30020F3CF36
:100F3C00792F1F932F933F934F931124112722271F
:100F4C0033274427552790E2AE17BF078607410782
:100F5C0030F0AE1BBF0B860B410B089401C088947C
:100F6C00551F221F331F111CAA1FBB1F881F441F94
:100F7C009A9551F7F901612D4F913F912F911F9146
:100F8C00662332F0550FEE1FFF1F661F7A9543F252
:100F9C007FDE5F91089599239AF0772342F097179B
:100FAC0048F029F4AE17BF07860720F031F098946B
:100FBC0088940895989408940895189488940895A2
:100FCC007723C2F7971798F3A9F7EA17FB07680777
:100FDC0088F399F3ECCF0024AF0DB01D0895F19573
:100FEC00E195F0400895F09560957095E195FF4F6F
:100FFC006F4F7F4F08956F2F660F660B762F0895F6
:10100C007A9F702D6B9F700DF89F700DE99F700D7E
:10101C006A9F602D710DFB9F600D711DE89F600D27
:10102C00711D8827FA9FF02D610D781FEB9FF00D35
:10103C00611D781FEA9FE02DF10D681F781F089540
:10104C002ED0DEDF0EF4CFDF08953F934F935F93E6
:10105C00002411244427552730E2AA0FBB1F881FF8
:10106C00991F001C111C441F551F0E1A1F0A460BFA
:10107C00570B28F40E0E1F1E461F571F01C0A160F0
:10108C003A9559F7FD01BC01D001CA015F914F910E
:10109C003F91089504D0D9DF0EF4A5DF0895E894AC
:1010AC0077FF02C0A0DF689497FF0BC00024A095C7
:1010BC00B095809590951196801D901D00F8039425
:1010CC0000FA0895ED91FC9111970895ED93FD931D
:1010DC006D937C9308950590F491E02D0895E8812B
:1010EC00F9816A817B810895A881B9818A819B816C
:1010FC000895E883F9836A837B8308957A936A93CE
:10110C00FA93EA9308959A938A93BA93AA930895BB
:10111C00689401C0E89401D022DE182E862F612D30
:10112C00192E972F712D1B2EBF2FF12D1A2EAE2F8E
:10113C00E12D08955A934A933A932A931A930A935A
:10114C0008955D814C813B812A8119810881089524
:00000001FF
