:0A0000000C9492000C9400000C9484
:10000A0000000C9400000C9400000C9400000C9466
:10001A0000000C9400000C9400000C9400000C9456
:10002A0000000C9400000C9400000C9400000C9446
:10003A0000000C9400000C9400000C9400000C9436
:10004A0000000C9400000C94000030313233343537
:10005A0036373839414243444546517374353A205C
:10006A005374617274202E2E2E0053706565643AA3
:10007A003F3F2830302D3530722900496E70757433
:10008A003A20004552524F52210054696D653A3F59
:10009A003F2830302D393973290057656967743A1A
:1000AA003F3F2830302D393946290054656D703A62
:1000BA003F3F2832302D38304329000080C01000DD
:1000CA00EE01540010006001640011007001740018
:1000DA00080081018500070089018D001000900148
:1000EA0094000800A00185000700A8018D001100F6
:1000FA00AF01A4000800C00185000700C8018D00F7
:10010A001000CF01B5000800DF0185000700E701F4
:10011A008D000200FE01C6000000F894EE27ECBB39
:10012A00F1E0FBBFEBBFE5BF8DE0A2E0BB27ED939B
:10013A008A95E9F780E094E0A0E6ED930197E9F764
:10014A00E8ECF0E085919591009761F0A591B59161
:10015A0005901590BF01F00105900D920197E1F706
:10016A00FB01F0CFEFE5EDBFE4E0EEBFC0E6D1E082
:10017A000C94BF000E94640102D0FFCFFFCF1A93F4
:10018A000A93A0E6B1E00E9497020E943C020E94F4
:10019A003C02A0E7B1E00E949C02A1E8B1E00E9403
:1001AA00A102163038F40A3028F4153011F4003060
:1001BA0009F409C00E94A7020E94AB02A9E8B1E0B3
:1001CA000E94970207C00E94A7020E94BC020E94D6
:1001DA00C20201C0DCCF0E943C02A0E9B1E00E9449
:1001EA009C02A0EAB1E00E94A1021A3010F40A307F
:1001FA0070F00E94D002A5E40E9446020E94A70263
:10020A000E94D402A8EAB1E00E94970209C00E94A3
:10021A00D0020E94BC020E94A7020E94DF0201C013
:10022A00DACF0E943C02AFEAB1E00E949C02A0EC45
:10023A00B1E00E94A1021A3010F40A3048F00E947C
:10024A00A7020E94AB02A8ECB1E00E94970207C085
:10025A000E94A7020E94BC020E94C20201C0E1CF12
:10026A000E943C02AFECB1E00E949C02AFEDB1E00B
:10027A000E94A102193048F4123038F00A3028F4EA
:10028A00183011F4003009F40EC00E94D002A5E41F
:10029A000E9446020E94A7020E94D402A7EEB1E081
:1002AA000E94970209C00E94D0020E94BC020E94CA
:1002BA00A7020E94DF0201C0D3CF0C940C02E0E037
:1002CA00EABBEBBBE7BBE8BBE4BBE5BBE1BBE2BB1C
:1002DA00E3BFE2BFECBFEFBDEEBDEDBDECBDE7BDD8
:1002EA00E6BDEBBDEABDE9BDE8BDE2BDE5BDE4BDE5
:1002FA00E3BDE9BFE5BFE4BFEAB9E0E8E8B9E0E099
:10030A00E0BFE6B9EDB9E6BFA0E10E946C0208952C
:10031A001A930A9300E110E0E0EFE7BBEFE0E8BBD5
:10032A00C49AC598C698C798B09B03C000E010E06D
:10033A005DC0B19B03C001E010E058C0B29B03C08E
:10034A0002E010E053C0B39B03C003E010E04EC0CC
:10035A003BD1C59AC698C798B09B03C004E010E089
:10036A0045C0B19B03C005E010E040C0B29B03C08A
:10037A0006E010E03BC0B39B03C007E010E036C0C4
:10038A0023D1C598C69AC798B09B03C008E010E06D
:10039A002DC0B19B03C009E010E028C0B29B03C086
:1003AA000AE010E023C0B39B03C00BE010E01EC0BC
:1003BA000BD1C598C698C79AB09B03C00CE010E051
:1003CA0015C0B19B03C00DE010E010C0B29B03C082
:1003DA000EE010E00BC0B39B03C00FE010E006C0B4
:1003EA00AAE0B0E00E94FB0200E110E0E0E1F0E0E8
:1003FA00E017F10709F494CFAEEEB1E0A00FB11FF8
:10040A00AC913FD0A8ECB0E00E94FB02E02F09912A
:10041A0019910895AA93EBB3EF70AE2FE881E07FAC
:10042A00EA2BEBBB8DE08A95F1F7DA9A8DE08A9593
:10043A00F1F7DA988DE08A95F1F772C0AA93A8814C
:10044A00E9DFE881E295E883A881E4DF85E88A9517
:10045A00F1F766C0AA93E881F0E0E250FE4FE0812E
:10046A00A981AE0FEBDF5980488022960895A2E059
:10047A00B1D0ACE0E3DFA1E0ADD0E0E04E2E5E2EDD
:10048A000895AA93A881AA3011F0571448F0E0E021
:10049A00EA934394A42DDEDFA881AA3009F440C070
:1004AA005394D89AA881CADFD8983AC0BA93AA9323
:1004BA001A93A981BA81ED91A983BA831E2FE030DC
:1004CA0019F0A12FDEDFF5CF188123960895AA939C
:1004DA00EAB3E06FEABBD29AD09AD19ADA98D8985E
:1004EA00D9987880E881E058E0930002E881E054E6
:1004FA00E0930102A4E1B0E00E94FB0270D06FD049
:10050A006ED0A0E287DF88EC90E00197F1F7A8E2CD
:10051A0095DFA4E093DFA5E891DFA6E08FDFA7DFF0
:10052A0021960895C3DFA8EEB3E00C94FB02BEDF68
:10053A00E0E0EA93A1E08ECFB9DFEADE1E2FE8DE23
:10054A000E2F0895E6E0EA93A0E084CFA5E499DFB0
:10055A00E7E0EA93A0E07EDFA5E493DFE1E0EA9337
:10056A00A0E078DFA8EEB3E00E94FB0280CFE12F83
:10057A00F0E0E251FE4FA08184CFE7E0EA93A0E0E9
:10058A0069DFE02FF0E0E251FE4FA0817ADFA8EEAA
:10059A00B3E00C94FB02E5E0EA93A0E05BCFA5E4AC
:1005AA0070DFE1E0EA93A0E055DFA8EEB3E00E9435
:1005BA00FB025DCFE02FF0E0E251FE4FA08161DF48
:1005CA00A8EEB3E00C94FB02AAE0B0E00E94FB02A2
:1005DA00C498089533DFA3E0B0E00C94FB02A0E3D3
:1005EA0019DF88EC90E00197F1F70895109639F039
:1005FA0080ED97E00197F1F7A8951197C9F708954B
:00000001FF
