:0E0000000C948F000C9400000C9400000C94E3
:10000E0000000C9400000C9400000C9400000C9462
:10001E0000000C9400000C9400000C9400000C9452
:10002E00BC000C9400000C94EE000C9400000C9498
:10003E0000000C9400000C9400000C9400000C9432
:10004E0000000C9400001027E80364000A00010071
:10005E000010000110000100000000000000000070
:10006E000000000000000000000000000000000082
:10007E000000000000000000000000000000000072
:10008E000000000000000000000000000000000062
:10009E00000000000000000000000000094C656E2A
:1000AE00677468206F66206672616D65206E6F746E
:1000BE0020636F72726563740D00094672616D651F
:1000CE00206D757374206265203520696E746567C6
:1000DE0065720D00094672616D6520697320636F4C
:1000EE0072726563740D000080C00100020066002C
:1000FE000800040068001E006001AA001A007E01BC
:10010E00C80013009801E2000200BB01F6000000D7
:10011E00F894EE27ECBBF1E0FBBFEBBFE5BF8DE043
:10012E00A2E0BB27ED938A95E9F780E094E0A0E684
:10013E00ED930197E9F7E8EFF0E08591959100973F
:10014E0061F0A591B59105901590BF01F001059054
:10015E000D920197E1F7FB01F0CFEFE5EDBFE4E083
:10016E00EEBFC0E6D1E00C942001EA93FA93EFB70C
:10017E00EA931A930A931BB10CB1E12FEC7189F437
:10018E00E42D4394F0E0E555FE4F0083E8E0E415DE
:10019E0009F444246394E8E0E61519F4662468949F
:1001AE0020F80991199125C01A936620F1F3E72DD5
:1001BE007394F0E0E555FE4F1081E8E0E71509F481
:1001CE007724F8946A947894E12F19910895EA931C
:1001DE00FA93EFB7EA93BB2061F0BA94E82D8394BB
:1001EE00F0E0ED54FE4FE081ECB9E8E0E81509F4DB
:1001FE008824E991EFBFF991E9911895AA93E8E067
:10020E00EB15E9F3F894BB2011F45D990DC0E92DBF
:10021E009394F0E0ED54FE4FA881A083E8E0E91539
:10022E0009F49924B39402C0E881ECB978940C9443
:10023E00D802E0E0EABBEBBBE7BBE8BBEFEFE4BB09
:10024E00E0E0E5BBE1BBE2BBE3BFE2BFECBFEFBD6D
:10025E00EEBDEDBDECBDE7BDE6BDEBBDEABDE9BD56
:10026E00E8BDE2BDE5BDE4BDE3BDE9BFE5BFE4BF6A
:10027E00EBB9E6E8E0BDE0E0E0BDE3E3E9B9E0E8D4
:10028E00E8B9E0E0E0BFE6B9EDB9E6BFA0E157D1CD
:10029E007894E0E8F5E2FA93EA93E2E0F0E0FA937C
:1002AE00EA93A2E0B0E003D089D0FECFFFCFBA939D
:1002BE00AA930E948A03EA85FB85EE0FFF1F0E9418
:1002CE002203A0E4B2E48FE090E00E946403319731
:1002DE008F01D801E0E0F1E00E943A039F01B22FB6
:1002EE00A0E0F801EA1BFB0BAF01A885B9851097BA
:1002FE0021F4AE81BF81109709F002C0E0E057C033
:10030E00A885B985119721F4AE81BF81109709F0A8
:10031E0002C0E8E04CC0A885B985129721F4AE81E1
:10032E00BF81109709F002C0E8E441C0A885B985E5
:10033E00109721F4AE81BF81119709F002C0E0E160
:10034E0036C0A885B985119721F4AE81BF8111976A
:10035E0009F002C0E8E12BC0A885B985129721F4F7
:10036E00AE81BF81119709F002C0E8E520C0A885D3
:10037E00B985109721F4AE81BF81129709F002C0A2
:10038E00E0E915C0A885B985119721F4AE81BF812A
:10039E00129709F002C0E8E90AC0A885B98512973C
:1003AE0021F4AE81BF81129709F002C0E8EDEAB9DF
:1003BE0020BD49B90E9491032C960895E99789E3CF
:1003CE00A0E0B0E0E0E7F0E00E9498030E948A030C
:1003DE0010E020E030E040E050E00E94E802E8E269
:1003EE00E8872F5F3F4F1D3059F0F901DE01189657
:1003FE00EA0FFB1F10830E94E8022F5F3F4FF3CFDF
:10040E00DE011896A20FB31FE9E2EC93E0E0EE8353
:10041E00EF830E94EE02A932B1F00E94EE02A033E9
:10042E0020F00E94EE02AA3320F00E94EE02A832C3
:10043E0009F403C044E650E006C0EE81FF81319618
:10044E00EE83FF83E6CF2630E0E03E072CF4A0E6F5
:10045E00B1E00E94DA0216C04A30E0E05E0724F4F2
:10046E002730E0E03E072CF0AEE7B1E00E94DA0262
:10047E0009C0A8E9B1E00E94DA02A0E160D0DE0175
:10048E00189653D00E949103EF960895AA93E5B360
:10049E00EF70AE2FE881E07FEA2BE5BB8DE08A9509
:1004AE00F1F7AA9A8DE08A95F1F7AA988DE08A95D0
:1004BE00F1F70C94D802AA93A881E8DFE881E295BF
:1004CE00E883A881E3DF85E88A95F1F76AC0AA93ED
:1004DE00E881F0E0E554FE4FE081A981AE0FEBDF3D
:1004EE00A980D88022960895A2E00E94F602ACE080
:1004FE00E2DFA1E00E94F602E0E0DE2EAE2E0895CD
:10050E00AA93A881AA3011F0AC1448F0E0E0EA9367
:10051E00D394AD2DDCDFA881AA3009F442C0A39498
:10052E00A89AA881C8DFA8983CC0BA93AA931A9338
:10053E000E94FC0219F0A12FE3DFFACF3FC0AA936D
:10054E00E4B3E06FE4BBA29AA09AA19AAA98A898E5
:10055E00A998C880E881E058E093BD01E881E05495
:10056E00E093BE01A4E1B0E00E940C030E940403DC
:10057E000E9404030E940403A0E288DF88EC90E04E
:10058E000197F1F7A8E297DFA4E095DFA5E893DFE6
:10059E00A6E091DFA9DF05C0AA935D9BFECFE8819F
:1005AE00ECB921960895BA93AA931A930E94FC026D
:1005BE0019F0A12FF1DFFACFAAE0EEDF1881239612
:1005CE0008950E94DB001E2FA12F0C940501EE81D1
:1005DE00FF81DE011896AE0FBF1FAC9108950E94E9
:1005EE006202A3E0B0E00C940C03A981BA81ED91F4
:1005FE00A983BA831E2FE0300895A0E30E944D0216
:10060E0088EC90E00197F1F70895109639F080ED9F
:10061E0097E00197F1F7A8951197C9F70895F1950D
:10062E00E195F0400895F09560957095E195FF4F36
:10063E006F4F7F4F08956F2F660F660B762F0895BD
:10064E000024112490E1AA0FBB1F001C111C0E1ACE
:10065E001F0A18F40E0E1F1E01C0A1609A9599F77D
:10066E00FD01D00108952ED0EBDF0EF4D8DF0895F2
:10067E003F934F935F93002411244427552730E274
:10068E00AA0FBB1F881F991F001C111C441F551F4A
:10069E000E1A1F0A460B570B28F40E0E1F1E461F6E
:1006AE00571F01C0A1603A9559F7FD01BC01D00159
:1006BE00CA015F914F913F91089512D0D9DF0EF488
:1006CE00B2DF0895E894F7FF02C0A9DF6894B7FF80
:1006DE0006C0A095B095119600F8039400FA0895FF
:1006EE00E89477FF02C09FDF689497FF0BC0002449
:1006FE00A095B095809590951196801D901D00F84F
:10070E00039400FA08955A934A933A932A931A93AC
:10071E000A9308955D814C813B812A81198108815C
:10072E000895AC0FBD1F05900D928A95E1F70895BF
:00000001FF
