:0A0000000C9469000C9400000C94AD
:10000A00D2000C9400000C9400000C9400000C9494
:10001A0000000C9400000C9400000C94F8000C945E
:10002A0000000C9400000C9400000C9400000C9446
:10003A0000000C9400000C9400000C9400000C9436
:10004A0000000C9400000C9400001027E8036400E0
:10005A000A000100001000011000010060016301A4
:10006A006601690130300000303A303A303A3000E7
:10007A002564003A000080C0030060016E0002009F
:10008A007F016600030063016E00020081016800BF
:10009A00030066016E00020083016A000300690121
:1000AA006E00020085016C0008006C0172000200FB
:1000BA0074017D00020076017D00020078017D0056
:1000CA000200870180000000F894EE27ECBBF1E003
:1000DA00FBBFEBBFE5BF8DE0A2E0BB27ED938A959E
:1000EA00E9F780E094E0A0E6ED930197E9F7E2E80A
:1000FA00F0E085919591009761F0A591B5910590F1
:10010A001590BF01F00105900D920197E1F7FB01EF
:10011A00F0CFEFE5EDBFE4E0EEBFC0E6D1E00C942E
:10012A00960005D07894E0E0E7BBFFCFFFCFE0E090
:10013A00EABBEBBBE7BBE8BBE4BBE5BBE1BBE2BBAD
:10014A00EBB7E068EBBFE8E0E5BFE0E0E4BFE0E87A
:10015A00EABFE0E0EAB9E0E8E8B9E0E0E0BFE6B922
:10016A00EDB9E6BFA0E10E94DE010895E5E0E3BF34
:10017A00E2EBE2BFE0E0ECBFEFBDEEBDEDBDECBDF2
:10018A00E7BDE6BDEBBDEABDE9BDE8BDE2BDE5BD43
:10019A00E4BDE3BDE1E0E9BF08950E94CD03B4994F
:1001AA0004C0E4DFE0E0E0937E01B59904C0A091C9
:1001BA007E01A03009F006C0E0E0E3BFE1E0E09391
:1001CA007E0110C0B59904C0A0917E01A13009F04A
:1001DA0009C0BDD0ACE6B1E0DBD0E0E0E0937E013F
:1001EA000E94DB0379C00E94CD03E2EBE2BFA0913B
:1001FA007A01A33641F4E0917B01EF5FE0937B0142
:10020A00E0E0E0937A01A0917B01AB3341F4E09105
:10021A007C01EF5FE0937C01E0E0E0937B01A09139
:10022A007C01AB3341F4E0917D01EF5FE0937D0106
:10023A00E0E0E0937C01A0917D01A83111F40E94D5
:10024A00DB03E0917A01EF5FE0937A01E0918501A7
:10025A00F09186010E94E503E0917D010E94EC0382
:10026A00E0918301F09184010E94E503E0917C0111
:10027A000E94EC03E0918101F09182010E94E50362
:10028A00E0917B010E94EC03E0917F01F0918001F3
:10029A000E94E503E0917A010E94EC0358D0A091F4
:1002AA008501B091860174D0A4E7B1E071D0A09124
:1002BA008301B09184016CD0A6E7B1E069D0A09126
:1002CA008101B091820164D0A8E7B1E061D0A09128
:1002DA007F01B09180015CD0E991EFBFF991E9917A
:1002EA00B991A9919991899179916991F990199006
:1002FA0009901895AA93E5B3EF70AE2FE881E07FD5
:10030A00EA2BE5BB8DE08A95F1F7AA9A8DE08A95EA
:10031A00F1F7AA988DE08A95F1F777C0AA93A88198
:10032A00E9DFE881E295E883A881E4DF85E88A9538
:10033A00F1F76BC0AA93E881F0E0E957FE4FE0813C
:10034A00A981AE0FEBDF5980488022960895A2E07A
:10035A000E94F603ACE0E2DFA1E00E94F603E0E0CF
:10036A004E2E5E2E0895AA93A881AA3011F0571432
:10037A0048F0E0E0EA934394A42DDCDFA881AA3098
:10038A0009F443C05394A89AA881C8DFA8983DC02D
:10039A00BA93AA931A93A981BA81ED91A983BA83D0
:1003AA001E2FE03019F0A12FDEDFF5CF188123963A
:1003BA000895AA93E4B3E06FE4BBA29AA09AA19A23
:1003CA00AA98A898A9987880E881E058E0938901CA
:1003DA00E881E054E0938A01A4E1B0E00E9430048D
:1003EA000E94FC030E94FC030E94FC03A0E282DF3D
:1003FA0088EC90E00197F1F7A8E290DFA4E08EDFA5
:10040A00A5E88CDFA6E08ADFA2DF21960895BA93D9
:10041A00AA931A930A93AA81BB8112960E94420454
:10042A00309759F1AA81BB8114960E9442048F0128
:10043A00309761F00230E0E01E0798F0F80131973A
:10044A008F01AA81BB811496ED93FC93AA81BB818B
:10045A001296ED91FD913196FE93EE933197AC8110
:10046A00A083AA81BB810E944204FF232AF0ED9156
:10047A00FD913196FE93EE9306C0AA81BB81EFEF00
:10048A00FFEFED93FC931981088125960895BA939D
:10049A00AA9326970E944F0410E0AC85BD85E0E040
:1004AA00F0E0ED93FC93EA89FB893196EA8BFB8BAA
:1004BA003197E4912E2FE03009F415C1E12FE03095
:1004CA0039F4253211F411E002C00E9404040AC171
:1004DA00E130A9F4253219F40E94040402C112E0A1
:1004EA0040E000E02D3211F401E0FCC02B3211F49F
:1004FA004BE2F8C0203211F440E2F4C002C0E2300C
:10050A0039F450E013E0203311F40068EBC003C063
:10051A00E33009F0E7C0203310F02A3308F007C0AF
:10052A00AAE05A9F502DE22FE0535E0FDBC0E22F64
:10053A00E33649F40E940B04E889F989A481AA9355
:10054A000E941104CEC0E33741F40E940B040E94BA
:10055A0017040E94B4031E2F0AC0E03761F40E94F8
:10056A000B040E9417040E94C0031E2F0860026039
:10057A000F7730E034C0E43611F0E93611F4046044
:10058A0002C0E53731F4E4E5F0E0EE83FF8315E0DD
:10059A000CC0E83511F4086003C0E83709F0A1C0BF
:1005AA00EEE5F0E0EE83FF8314E002FF14C00E9440
:1005BA000B040E942104AB85AA233AF4EA85FB8541
:1005CA000E943E04EA87FB874DE2403011F01F5F2C
:1005DA0001C00B7F04C00E940B040E94210400FD8D
:1005EA0011C0151778F407FF08C002FF04C00B7F7B
:1005FA00242F115001C020E301C020E20E9404040C
:10060A005150EFCF312F01FF17C03030A1F003FF57
:10061A0006C0EE81FF812591EE83FF8305C0AE817E
:10062A00BF812D91AE83BF830E940404503009F02C
:10063A0051503150EACF4BC020E3EE81FF810E9436
:10064A004604E887F987EE81FF813296EE83FF83BD
:10065A00E885F985AA85BB85AE17BF0750F02F5FDD
:10066A00A885B985EA85FB85EA1BFB0BEA87FB8728
:10067A00EFCF2A3328F003FF02C0295F01C0295DAA
:10068A0004FD1AC0213320F4A885B985119709F40D
:10069A0009C0531710F000FF01C013C020E207FF82
:1006AA000BC020E3006102FF07C00B7F4A930E9440
:1006BA001104503009F051500E940404503009F0DE
:1006CA0051503150A885B985129708F0B5CF00FF6F
:1006DA0008C0503031F05150E0E2EA930E94110410
:1006EA00F8CF10E0E0CEAC85BD850E9442040E949E
:1006FA00560464960895FF92F82E26970E94510494
:10070A000E942904309719F4EFEFFFEF23C0DE01AE
:10071A0016960E943A048D010E942904EE83FF83F3
:10072A00E0E0E887E987DE011A960E943A040E940F
:10073A004204FA93EA931A930A93ECE0F2E0FA93EA
:10074A00EA93DE011A96A3DE9F01AE81BF81E0E043
:10075A00EC93F9010E9458042A96FF900895BA93DF
:10076A00AA93A991B991EE27FF276D91662311F0FB
:10077A003196FBCF0895BA93AA93AA27BB27E9918A
:10078A00F9910590002011F01196FBCFFD01089513
:10079A000A921A92FA926A937A938A939A93AA93EA
:1007AA00BA93EA93FA93EFB7EA930895E0E0E093F5
:1007BA007A01E0937B01E0937C01E0937D01089547
:1007CA00FA93EA93EAE7F0E0FA93EA930895FF27A7
:1007DA00662777270E944A0484E00E9480032896AD
:1007EA0008950E949301A3E0B0E00C943004A0E3C2
:1007FA000E947F0188EC90E00197F1F708952A930F
:10080A00AD85BE85EF85F88909950895E889F98946
:10081A003497E88BF98B0895AD85BE85EF85F88905
:10082A0009950895A889B98914960E944204EE830D
:10083A00FF83AE81BF810895A889B98914960E9461
:10084A004204EA87FB870895DE011C960E943A0457
:10085A000E9442040895109639F080ED97E00197BE
:10086A00F1F7A8951197C9F708950024AF0DB01DA7
:10087A000895F195E195F0400895ED91FC91119755
:10088A0008950590F491E02D08957A936A93FA9366
:10089A00EA9308955A934A933A932A931A930A9396
:1008AA0008955D814C813B812A81198108810895CF
:00000001FF
