:0C0000000C942A000C9400000C940000EA
:10000C000C9400000C9400000C9400000C94000064
:10001C000C9400000C9400000C9400000C94000054
:10002C000C9400000C9400000C9400000C94000044
:10003C000C9400000C9400000C9400000C94000034
:10004C000C9400000C940000F894EE27ECBBF1E04B
:10005C00FBBFEBBFE5BF8DE0A2E0BB27ED938A951C
:10006C00E9F780E094E0A0E6ED930197E9F7EFE57E
:10007C00EDBFE4E0EEBFC0E6D1E00C944500E3E058
:10008C00EA93A0E1B7E202D0FFCFFFCFBA93AA93D5
:10009C001A930A93EFEFE7BBEC81F0E0E130A0E0BC
:1000AC00FA0711F4E1E025C0E230A0E0FA0711F400
:1000BC00E2E01FC0E330A0E0FA0711F4E4E019C05D
:1000CC00E430A0E0FA0711F4E8E013C0E530A0E05A
:1000DC00FA0711F4E0E10DC0E630A0E0FA0711F4E4
:1000EC00E0E207C0E730A0E0FA0711F4E0E401C059
:1000FC00E0E8E8BB00E010E0EA81FB81E017F107E3
:10010C0089F0E8B3E03011F4E0E8E8BBA4E6B0E035
:10011C000E949C000C591F4FE8B3F0E0F595E79551
:10012C00E8BBEACF1981088125960895109639F01D
:10013C0080ED97E00197F1F7A8951197C9F708950D
:00000001FF
