:0E0000000C9445000C9400000C9472000C94BB
:10000E0000000C9400000C9400000C9400000C9462
:10001E0000000C9400000C9400000C9400000C9452
:10002E0000000C9400000C9400000C9400000C9442
:10003E0000000C9400000C9400000C9400000C9432
:10004E0000000C94000030313233343536373839F5
:10005E00414243444546517374342C2053746172AB
:10006E00742E2E2E000080C010006F0154000F0061
:10007E006001640002007F0174000000F894EE2716
:10008E00ECBBF1E0FBBFEBBFE5BF8DE0A2E0BB2711
:10009E00ED938A95E9F780E094E0A0E6ED93019761
:1000AE00E9F7E6E7F0E085919591009761F0A5916B
:1000BE00B59105901590BF01F00105900D92019735
:1000CE00E1F7FB01F0CFEFE5EDBFE4E0EEBFC0E6F8
:1000DE00D1E00C9493000A921A92FA926A937A9350
:1000EE008A939A93AA93BA93EA93FA93EFB7EA9301
:1000FE00EFE0E7BBE0EFE8BB0E94C900E991EFBF7C
:10010E00F991E991B991A991999189917991699111
:10011E00F99019900990189504D00E944C01FFCFC8
:10012E00FFCFE0E0EABBEBBBE7BBE8BBE4BBE5BB64
:10013E00E1BBE2BBE3BFE2BFECBFEFBDEEBDEDBD89
:10014E00ECBDE7BDE6BDEBBDEABDE9BDE8BDE2BD78
:10015E00E5BDE4BDE3BDE9BFEBB7E068EBBFECE0A6
:10016E00E5BFE0E0E4BFE0E8EABFE0E0EAB9E0E8DE
:10017E00E8B9E0E0E0BFE6B9EDB9E6BFA0E10E9464
:10018E00C70108951A930A9300E110E0E0EFE7BB70
:10019E00EFE0E8BB0E949701C49AC598C698C7982D
:1001AE00B09B03C000E010E05EC0B19B03C001E055
:1001BE0010E059C0B29B03C002E010E054C0B39BE4
:1001CE0003C003E010E04FC00E94F201C59AC6982A
:1001DE00C798B09B03C004E010E045C0B19B03C0BC
:1001EE0005E010E040C0B29B03C006E010E03BC04B
:1001FE00B39B03C007E010E036C00E94F201C59821
:10020E00C69AC798B09B03C008E010E02CC0B19B03
:10021E0003C009E010E027C0B29B03C00AE010E063
:10022E0022C0B39B03C00BE010E01DC00E94F20180
:10023E00C598C698C79AB09B03C00CE010E013C0D7
:10024E00B19B03C00DE010E00EC0B29B03C00EE0E8
:10025E0010E009C0B39B03C00FE010E004C00E9481
:10026E00F80100E110E0E0E1F0E0E017F10709F439
:10027E0093CFAFE6B1E0A00FB11FAC910E94A101E8
:10028E000E94FC01099119910895EFE0E7BBE0EFA0
:10029E00E8BBA0E6B1E063D0A8D07894C09AC1982C
:1002AE00C298C3989ED0C098C19AC298C39899D04C
:1002BE00C098C198C29AC39894D0C098C198C29859
:1002CE00C39A8FD0EBCFAA93EBB3EF70AE2FE8812A
:1002DE00E07FEA2BEBBB8DE08A95F1F7DA9A8DE0A1
:1002EE008A95F1F7DA988DE08A95F1F772C0AA93A4
:1002FE00A881E9DFE881E295E883A881E4DF85E85B
:10030E008A95F1F766C0AA93E881F0E0E158FE4FB6
:10031E00E081A981AE0FEBDF5980488022960895C7
:10032E00A2E068D0ACE0E3DFA1E064D0E0E04E2EC6
:10033E005E2E0895AA93A881AA3011F0571448F0A2
:10034E00E0E0EA934394A42DDEDFA881AA3009F4FD
:10035E0040C05394D89AA881CADFD8983AC0BA93AD
:10036E00AA931A93A981BA81ED91A983BA831E2FFC
:10037E00E03019F0A12FDEDFF5CF18812396089516
:10038E00AA93EAB3E06FEABBD29AD09AD19ADA98DE
:10039E00D898D9987880E881E058E0938101E88177
:1003AE00E054E0938201A4E1B0E00E940D0227D058
:1003BE0026D025D0A0E287DF88EC90E00197F1F7F8
:1003CE00A8E295DFA4E093DFA5E891DFA6E08FDF3A
:1003DE00A7DF21960895AAE0B0E00E940D02C4980E
:1003EE000895AAE0B0E00C940D02A8EEB3E00E94CE
:1003FE000D0296CF7CDFA3E0B0E00C940D02A0E3DB
:10040E0062DF88EC90E00197F1F70895109639F0CD
:10041E0080ED97E00197F1F7A8951197C9F7089528
:00000001FF
