:0A0000000C942A000C9400000C94EC
:10000A0000000C9400000C9400000C9400000C9466
:10001A0000000C9400000C9400000C9400000C9456
:10002A0000000C9400000C9400000C9400000C9446
:10003A0000000C9400000C9400000C9400000C9436
:10004A0000000C9400000C940000F894EE27ECBB1E
:10005A00F1E0FBBFEBBFE5BF8DE0A2E0BB27ED936C
:10006A008A95E9F780E094E0A0E6ED930197E9F735
:10007A00EFE5EDBFE4E0EEBFC0E6D1E00C94450049
:10008A00E6E0EA93E2E0EA93A0E1B7E202D0FFCF2A
:10009A00FFCFBA93AA931A93EB81F0E0E130A0E084
:1000AA00FA0719F4EFEFEABB14C0E230A0E0FA074E
:1000BA0071F0E330A0E0FA0719F4EFEFE4BB09C0EE
:1000CA00E430A0E0FA0719F4EFEFE1BB02C0EFEF6A
:1000DA00E7BB10E0EC811E1770F4EFEFE8BBA981D3
:1000EA00BA810E948300E0E0E8BBA981BA810E943C
:1000FA0083001F5FEFCF188125960895109639F077
:10010A0080ED97E00197F1F7A8951197C9F708953F
:00000001FF
