:060000000C94EA000C94D0
:1000060000000C9417010C9400000C9400000C9452
:1000160000000C9400000C9400000C9400000C945A
:1000260000000C9400000C9400000C9400000C944A
:1000360000000C9400000C9400000C9400000C943A
:1000460000000C9400000C9400000C940000303169
:100056003233343536373839414243444546517395
:1000660074313A205374617274202E2E2E0046612C
:10007600727A616E65680039373333353033000084
:1000860057656C636F6D6520746F20746865206FAB
:100096006E6C696E65206C616220636C617373655A
:1000A600732064756520746F20436F726F6E6120D4
:1000B600646973656173652E0000517374323A206A
:1000C6005374617274202E2E2E00517374333A20AD
:1000D6005374617274202E2E2E00517374343A209C
:1000E60053746172742E2E2E0000517374353A20AB
:1000F6005374617274202E2E2E0053706565643A17
:100106003F3F2830302D3530722900496E707574A6
:100116003A20004552524F52210054696D653A3FCC
:100126003F2830302D393973290057656967743A8D
:100136003F3F2830302D393946290054656D703AD5
:100146003F3F2832302D38304329000080C0100050
:100156003E02540010006001640009007001740042
:10016600080079017D0010008101C0001000910196
:10017600D0000F00A101E0001000B001F000110056
:10018600C00100010800D10111010700D9011901C0
:100196001000E00120010800F00111010700F8013C
:1001A60019011100FF0130010800100211010700BA
:1001B6001802190110001F02410108002F02110147
:1001C60007003702190102004E0252010000F8949E
:1001D600EE27ECBBF1E0FBBFEBBFE5BF8DE0A2E095
:1001E600BB27ED938A95E9F780E094E0A0E6ED93CE
:1001F6000197E9F7E4E5F1E085919591009761F0C3
:10020600A591B59105901590BF01F00105900D924D
:100216000197E1F7FB01F0CFEFE5EDBFE4E0EEBFBC
:10022600C0E6D1E00C9438010A921A92FA926A93C7
:100236007A938A939A93AA93BA93EA93FA93EFB727
:10024600EA93EFE0E7BBE0EFE8BB0E940B03E9911E
:10025600EFBFF991E991B991A99199918991799114
:100266006991F9901990099018950E9491030E943E
:100276008603FFCFFFCF0E94EE03A0E6B1E00E9407
:100286005A04A0E10E9420040E94EE03A0E7B1E018
:100296000E946004A9E7B1E00E945A040895EF970E
:1002A6002B9789E3A0E0B0E0E6E8F0E00E94DC04EA
:1002B6000E94CE0400E010E0DE0116960E944E0475
:1002C6005E2F0E94EE03A1E8B1E00E945A04A0E16D
:1002D6000E9420040E94EE03E52FD801F0E0EA1701
:1002E600FB07A9F120E030E02031E0E03E07D4F43E
:1002F600DE011696A00FB11FEC91E03099F0F901DE
:10030600DE01DF96EA0FFB1F0F01F901E00FF11F77
:10031600DE011696AE0FBF1FEC91D001EC932F5F56
:100326003F4FE2CFE0E0DE01A15BBF4FEC930F5FF2
:100336001F4F0E94EE03E0E00E946704DE01DF9695
:100346000E940F04A4E6B0E00E94C404C5CF0E9438
:10035600EE030E94D504EF96619608950E946B0401
:10036600EFEFE8BB0E94EE03A1E9B1E00E945A0458
:100376000E94EE03C49AC598C698C798B09B03C05E
:1003860001E010E05EC0B19B03C002E010E059C07E
:10039600B29B03C003E010E054C0B39B03C00AE065
:1003A60010E04FC00E947204C59AC698C798B09BC9
:1003B60003C004E010E045C0B19B03C005E010E0B7
:1003C60040C0B29B03C006E010E03BC0B39B03C035
:1003D6000BE010E036C00E947204C598C69AC79812
:1003E600B09B03C007E010E02CC0B19B03C008E03F
:1003F60010E027C0B29B03C009E010E022C0B39B07
:1004060003C00CE010E01DC00E947204C598C69897
:10041600C79AB09B03C00FE010E013C0B19B03C0A6
:1004260000E010E00EC0B29B03C00EE010E009C071
:10043600B39B03C00DE010E004C00E94780400E105
:1004460010E0E0E1F0E0E017F10709F493CF0E9435
:100456007C04A8EBBBE00E9483040C9483030E94F7
:10046600EE03EFE0E7BBE0EFE8BBA1EAB1E00E94F4
:100476005A040E94EE037894C09AC198C298C39811
:100486000E947804C098C19AC298C3980E947804C2
:10049600C098C198C29AC3980E947804C098C1981F
:1004A600C298C39A0E947804E7CF1A930A930E94CF
:1004B600EE03A0EBB1E00E945A040E94EE030E94F4
:1004C600EE03A0ECB1E00E946004A1EDB1E00E9451
:1004D6008704163038F40A3028F4153011F4003049
:1004E60009F40EC0E6E00E9467040E9490040E9490
:1004F60095040E949A04A9EDB1E00E945A0408C02E
:10050600E5E00E9467040E949D040E94A60401C0C3
:10051600D6CF0E94EE03A0EEB1E00E946004A0EFE9
:10052600B1E00E9487041A3010F40A3070F0E5E05A
:100536000E9467040E94B1040E9495040E949A04D6
:10054600A8EFB1E00E945A0408C0E5E00E946704E3
:100556000E949D040E94A60401C0DBCF0E94EE0308
:10056600AFEFB1E00E946004A0E1B2E00E94870410
:100576001A3010F40A3070F0E6E00E9467040E9418
:1005860090040E9495040E949A04A8E1B2E00E9499
:100596005A0410C0E6E00E946704E12FF0E0E25C36
:1005A600FD4FA0810E94FA03E7E00E9467040E94C3
:1005B600A60401C0D3CF0E94EE03AFE1B2E00E94D1
:1005C6006004AFE2B2E00E948704193048F41230AA
:1005D60038F00A3028F4183011F4003009F40EC04F
:1005E600E5E00E9467040E94B1040E9495040E94FF
:1005F6009A04A7E3B2E00E945A0408C0E5E00E940C
:1006060067040E949D040E94A60401C0D4CF78C04E
:100616000E946B04EFE0E8BBC49AC598C698C798D9
:10062600B09B03C000E010E05EC0B19B03C001E0D8
:1006360010E059C0B29B03C002E010E054C0B39B67
:1006460003C003E010E04FC00E947204C59AC6982A
:10065600C798B09B03C004E010E045C0B19B03C03F
:1006660005E010E040C0B29B03C006E010E03BC0CE
:10067600B39B03C007E010E036C00E947204C59821
:10068600C69AC798B09B03C008E010E02CC0B19B87
:1006960003C009E010E027C0B29B03C00AE010E0E7
:1006A60022C0B39B03C00BE010E01DC00E94720481
:1006B600C598C698C79AB09B03C00CE010E013C05B
:1006C600B19B03C00DE010E00EC0B29B03C00EE06C
:1006D60010E009C0B39B03C00FE010E004C00E9405
:1006E600780400E110E0E0E1F0E0E017F10709F43A
:1006F60093CF0E947C04A8ECB0E00E94C404E02FD3
:100706000991199108950E943E010E9452010E948A
:10071600B1010E9458020E9432020895E0E0EABB4D
:10072600EBBBE7BBE8BBE4BBE5BBE1BBE2BBE3BFBE
:10073600E2BFECBFEFBDEEBDEDBDECBDE7BDE6BD76
:10074600EBBDEABDE9BDE8BDE2BDE5BDE4BDE3BD87
:10075600E9BFEBB7E068EBBFECE0E5BFE0E0E4BF84
:10076600E0E8EABFE0E0EAB9E0E8E8B9E0E0E0BFE7
:10077600E6B9EDB9E6BFA0E160D00895AA93EBB360
:10078600EF70AE2FE881E07FEA2BEBBB8DE08A9518
:10079600F1F7DA9A8DE08A95F1F7DA988DE08A9585
:1007A600F1F777C0AA93A881E9DFE881E295E883AB
:1007B600A881E4DF85E88A95F1F76BC0AA93E88102
:1007C600F0E0E25BFD4FE081A981AE0FEBDF5980DF
:1007D600488022960895A2E00E94B604ACE0E2DFCB
:1007E600A1E00E94B604E0E04E2E5E2E0895AA9384
:1007F600A881AA3011F0571448F0E0E0EA93439438
:10080600A42DDCDFA881AA3009F443C05394D89AFA
:10081600A881C8DFD8983DC0BA93AA931A93A98134
:10082600BA81ED91A983BA831E2FE03019F0A12F6A
:10083600DEDFF5CF188123960895AA93EAB3E06F19
:10084600EABBD29AD09AD19ADA98D898D998788071
:10085600E881E058E0935002E881E054E0935102C9
:10086600A4E1B0E00E94C4040E94BC040E94BC043F
:100876000E94BC04A0E282DF88EC90E00197F1F7C9
:10088600A8E290DFA4E08EDFA5E88CDFA6E08ADF91
:10089600A2DF21960895BA93AA93A991B991EE275A
:1008A600FF276D91662311F03196FBCF08950E94C4
:1008B6000F04A8EEB3E00C94C4040E940F04E0E019
:1008C600EA93A1E00C94E103EA93A0E00C94E1031F
:1008D6001A930A9300E110E0E0EFE7BB0895AAE05F
:1008E600B0E00E94C404C4980895AAE0B0E00C9455
:1008F600C404AEE3B2E0A00FB11FAC910C94FA03AE
:100906000E94C4040C94EE030E940F040E940B0381
:100916001E2F0E940B030E2F0895A5E40E94FA03D2
:10092600E7E0D2CFA5E40E94FA03E1E0CDCFA8EE3E
:10093600B3E0E6CFE12FF0E0E25CFD4FA0810E943C
:10094600FA03E6E0C1CFE02FF0E0E25CFD4FA081C4
:100956000E94FA03A8EEB3E00C94C404A5E40E9436
:10096600FA03E6E0B1CF0E94D503A3E0B0E00C9411
:10097600C404A0E30E94C10388EC90E00197F1F75C
:100986000895109639F080ED97E00197F1F7A89554
:100996001197C9F708955A934A933A932A931A934B
:1009A6000A9308955D814C813B812A8119810881D2
:1009B6000895AC0FBD1F05900D928A95E1F7089535
:00000001FF
